{
  "_format": "hh-sol-artifact-1",
  "contractName": "Campaign",
  "sourceName": "contracts/Campaign.sol",
  "abi": [
    {
      "inputs": [
        {
          "internalType": "string",
          "name": "pTitle",
          "type": "string"
        },
        {
          "internalType": "string",
          "name": "pTwitter",
          "type": "string"
        },
        {
          "internalType": "string",
          "name": "pImage",
          "type": "string"
        },
        {
          "internalType": "uint256",
          "name": "pMinimum",
          "type": "uint256"
        },
        {
          "internalType": "address",
          "name": "pCreator",
          "type": "address"
        }
      ],
      "stateMutability": "nonpayable",
      "type": "constructor"
    },
    {
      "inputs": [
        {
          "internalType": "uint256",
          "name": "index",
          "type": "uint256"
        }
      ],
      "name": "approveRequest",
      "outputs": [],
      "stateMutability": "nonpayable",
      "type": "function"
    },
    {
      "inputs": [
        {
          "internalType": "address",
          "name": "",
          "type": "address"
        }
      ],
      "name": "approvers",
      "outputs": [
        {
          "internalType": "bool",
          "name": "",
          "type": "bool"
        }
      ],
      "stateMutability": "view",
      "type": "function"
    },
    {
      "inputs": [],
      "name": "approversCount",
      "outputs": [
        {
          "internalType": "uint256",
          "name": "",
          "type": "uint256"
        }
      ],
      "stateMutability": "view",
      "type": "function"
    },
    {
      "inputs": [
        {
          "internalType": "string",
          "name": "newStatus",
          "type": "string"
        }
      ],
      "name": "changeStatus",
      "outputs": [],
      "stateMutability": "nonpayable",
      "type": "function"
    },
    {
      "inputs": [],
      "name": "contribute",
      "outputs": [],
      "stateMutability": "payable",
      "type": "function"
    },
    {
      "inputs": [
        {
          "internalType": "string",
          "name": "pDescription",
          "type": "string"
        },
        {
          "internalType": "uint256",
          "name": "pValue",
          "type": "uint256"
        },
        {
          "internalType": "address payable",
          "name": "pRecipient",
          "type": "address"
        }
      ],
      "name": "createRequest",
      "outputs": [],
      "stateMutability": "nonpayable",
      "type": "function"
    },
    {
      "inputs": [
        {
          "internalType": "uint256",
          "name": "index",
          "type": "uint256"
        }
      ],
      "name": "finalizeRequest",
      "outputs": [],
      "stateMutability": "payable",
      "type": "function"
    },
    {
      "inputs": [],
      "name": "getSummary",
      "outputs": [
        {
          "internalType": "string",
          "name": "",
          "type": "string"
        },
        {
          "internalType": "string",
          "name": "",
          "type": "string"
        },
        {
          "internalType": "string",
          "name": "",
          "type": "string"
        },
        {
          "internalType": "uint256",
          "name": "",
          "type": "uint256"
        },
        {
          "internalType": "uint256",
          "name": "",
          "type": "uint256"
        },
        {
          "internalType": "uint256",
          "name": "",
          "type": "uint256"
        },
        {
          "internalType": "uint256",
          "name": "",
          "type": "uint256"
        },
        {
          "internalType": "address",
          "name": "",
          "type": "address"
        }
      ],
      "stateMutability": "view",
      "type": "function"
    },
    {
      "inputs": [],
      "name": "image",
      "outputs": [
        {
          "internalType": "string",
          "name": "",
          "type": "string"
        }
      ],
      "stateMutability": "view",
      "type": "function"
    },
    {
      "inputs": [],
      "name": "manager",
      "outputs": [
        {
          "internalType": "address",
          "name": "",
          "type": "address"
        }
      ],
      "stateMutability": "view",
      "type": "function"
    },
    {
      "inputs": [],
      "name": "minimumContribution",
      "outputs": [
        {
          "internalType": "uint256",
          "name": "",
          "type": "uint256"
        }
      ],
      "stateMutability": "view",
      "type": "function"
    },
    {
      "inputs": [
        {
          "internalType": "uint256",
          "name": "",
          "type": "uint256"
        }
      ],
      "name": "requests",
      "outputs": [
        {
          "internalType": "string",
          "name": "description",
          "type": "string"
        },
        {
          "internalType": "uint256",
          "name": "value",
          "type": "uint256"
        },
        {
          "internalType": "address payable",
          "name": "recipient",
          "type": "address"
        },
        {
          "internalType": "bool",
          "name": "complete",
          "type": "bool"
        },
        {
          "internalType": "uint256",
          "name": "approvalsCount",
          "type": "uint256"
        }
      ],
      "stateMutability": "view",
      "type": "function"
    },
    {
      "inputs": [],
      "name": "requestsCount",
      "outputs": [
        {
          "internalType": "uint256",
          "name": "",
          "type": "uint256"
        }
      ],
      "stateMutability": "view",
      "type": "function"
    },
    {
      "inputs": [],
      "name": "status",
      "outputs": [
        {
          "internalType": "string",
          "name": "",
          "type": "string"
        }
      ],
      "stateMutability": "view",
      "type": "function"
    },
    {
      "inputs": [],
      "name": "title",
      "outputs": [
        {
          "internalType": "string",
          "name": "",
          "type": "string"
        }
      ],
      "stateMutability": "view",
      "type": "function"
    },
    {
      "inputs": [],
      "name": "twitter",
      "outputs": [
        {
          "internalType": "string",
          "name": "",
          "type": "string"
        }
      ],
      "stateMutability": "view",
      "type": "function"
    }
  ],
  "bytecode": "0x60806040523480156200001157600080fd5b5060405162000f7538038062000f758339810160408190526200003491620001fc565b845162000049906002906020880190620000a3565b5083516200005f906003906020870190620000a3565b50825162000075906004906020860190620000a3565b50600180546001600160a01b0319166001600160a01b03929092169190911790556005555062000309915050565b828054620000b190620002b6565b90600052602060002090601f016020900481019282620000d5576000855562000120565b82601f10620000f057805160ff191683800117855562000120565b8280016001018555821562000120579182015b828111156200012057825182559160200191906001019062000103565b506200012e92915062000132565b5090565b5b808211156200012e576000815560010162000133565b600082601f8301126200015a578081fd5b81516001600160401b0380821115620001775762000177620002f3565b604051601f8301601f19908116603f01168101908282118183101715620001a257620001a2620002f3565b81604052838152602092508683858801011115620001be578485fd5b8491505b83821015620001e15785820183015181830184015290820190620001c2565b83821115620001f257848385830101525b9695505050505050565b600080600080600060a0868803121562000214578081fd5b85516001600160401b03808211156200022b578283fd5b6200023989838a0162000149565b965060208801519150808211156200024f578283fd5b6200025d89838a0162000149565b9550604088015191508082111562000273578283fd5b50620002828882890162000149565b60608801516080890151919550935090506001600160a01b0381168114620002a8578182fd5b809150509295509295909350565b600181811c90821680620002cb57607f821691505b60208210811415620002ed57634e487b7160e01b600052602260045260246000fd5b50919050565b634e487b7160e01b600052604160045260246000fd5b610c5c80620003196000396000f3fe6080604052600436106100f35760003560e01c806386a5ff971161008a578063d7bb99ba11610059578063d7bb99ba146102aa578063d7d1bbdb146102b2578063f3ccaac0146102d2578063fbfa4b7f146102e757600080fd5b806386a5ff971461023f5780638a9cfd551461025f578063937e09b11461027f578063abfaeee01461029557600080fd5b8063481c6a75116100c6578063481c6a751461019d5780634a79d50c146101d557806381d12c58146101ea57806382fde0931461021b57600080fd5b806303441006146100f85780630a1443911461010d578063200d2ed2146101525780634051ddac14610174575b600080fd5b61010b610106366004610a4f565b6102fd565b005b34801561011957600080fd5b5061013d610128366004610998565b60086020526000908152604090205460ff1681565b60405190151581526020015b60405180910390f35b34801561015e57600080fd5b506101676103b0565b6040516101499190610ab2565b34801561018057600080fd5b5061018961043e565b604051610149989796959493929190610ac5565b3480156101a957600080fd5b506001546101bd906001600160a01b031681565b6040516001600160a01b039091168152602001610149565b3480156101e157600080fd5b5061016761062f565b3480156101f657600080fd5b5061020a610205366004610a4f565b61063c565b604051610149959493929190610b36565b34801561022757600080fd5b5061023160065481565b604051908152602001610149565b34801561024b57600080fd5b5061010b61025a3660046109bb565b610703565b34801561026b57600080fd5b5061010b61027a3660046109f6565b610731565b34801561028b57600080fd5b5061023160055481565b3480156102a157600080fd5b506101676107a3565b61010b6107b0565b3480156102be57600080fd5b5061010b6102cd366004610a4f565b6107ee565b3480156102de57600080fd5b5061016761086b565b3480156102f357600080fd5b5061023160005481565b6001546001600160a01b0316331461031457600080fd5b600081815260096020526040902060065461033190600290610b76565b81600301541161034057600080fd5b6002810154600160a01b900460ff161561035957600080fd5b60028101805460ff60a01b198116600160a01b1790915560018201546040516001600160a01b039092169181156108fc0291906000818181858888f193505050501580156103ab573d6000803e3d6000fd5b505050565b600780546103bd90610b96565b80601f01602080910402602001604051908101604052809291908181526020018280546103e990610b96565b80156104365780601f1061040b57610100808354040283529160200191610436565b820191906000526020600020905b81548152906001019060200180831161041957829003601f168201915b505050505081565b6060806060600080600080600060026003600460055447600054600654600160009054906101000a90046001600160a01b031687805461047d90610b96565b80601f01602080910402602001604051908101604052809291908181526020018280546104a990610b96565b80156104f65780601f106104cb576101008083540402835291602001916104f6565b820191906000526020600020905b8154815290600101906020018083116104d957829003601f168201915b5050505050975086805461050990610b96565b80601f016020809104026020016040519081016040528092919081815260200182805461053590610b96565b80156105825780601f1061055757610100808354040283529160200191610582565b820191906000526020600020905b81548152906001019060200180831161056557829003601f168201915b5050505050965085805461059590610b96565b80601f01602080910402602001604051908101604052809291908181526020018280546105c190610b96565b801561060e5780601f106105e35761010080835404028352916020019161060e565b820191906000526020600020905b8154815290600101906020018083116105f157829003601f168201915b50505050509550975097509750975097509750975097509091929394959697565b600280546103bd90610b96565b60096020526000908152604090208054819061065790610b96565b80601f016020809104026020016040519081016040528092919081815260200182805461068390610b96565b80156106d05780601f106106a5576101008083540402835291602001916106d0565b820191906000526020600020905b8154815290600101906020018083116106b357829003601f168201915b5050505060018301546002840154600390940154929390926001600160a01b0382169250600160a01b90910460ff169085565b6001546001600160a01b0316331461071a57600080fd5b805161072d906007906020840190610878565b5050565b600080546009908290818061074583610bd1565b909155508152602080820192909252604001600020855190925061076e91839190870190610878565b5060018101929092556002820180546001600160a81b0319166001600160a01b03909216919091179055600060039091015550565b600380546103bd90610b96565b6005543410156107bf57600080fd5b336000908152600860205260408120805460ff1916600117905560068054916107e783610bd1565b9190505550565b600081815260096020908152604080832033845260089092529091205460ff1661081757600080fd5b33600090815260048201602052604090205460ff161561083657600080fd5b3360009081526004820160205260408120805460ff191660011790556003820180549161086283610bd1565b91905055505050565b600480546103bd90610b96565b82805461088490610b96565b90600052602060002090601f0160209004810192826108a657600085556108ec565b82601f106108bf57805160ff19168380011785556108ec565b828001600101855582156108ec579182015b828111156108ec5782518255916020019190600101906108d1565b506108f89291506108fc565b5090565b5b808211156108f857600081556001016108fd565b600082601f830112610921578081fd5b813567ffffffffffffffff8082111561093c5761093c610bf8565b604051601f8301601f19908116603f0116810190828211818310171561096457610964610bf8565b8160405283815286602085880101111561097c578485fd5b8360208701602083013792830160200193909352509392505050565b6000602082840312156109a9578081fd5b81356109b481610c0e565b9392505050565b6000602082840312156109cc578081fd5b813567ffffffffffffffff8111156109e2578182fd5b6109ee84828501610911565b949350505050565b600080600060608486031215610a0a578182fd5b833567ffffffffffffffff811115610a20578283fd5b610a2c86828701610911565b935050602084013591506040840135610a4481610c0e565b809150509250925092565b600060208284031215610a60578081fd5b5035919050565b60008151808452815b81811015610a8c57602081850181015186830182015201610a70565b81811115610a9d5782602083870101525b50601f01601f19169290920160200192915050565b6020815260006109b46020830184610a67565b6000610100808352610ad98184018c610a67565b90508281036020840152610aed818b610a67565b90508281036040840152610b01818a610a67565b60608401989098525050608081019490945260a084019290925260c08301526001600160a01b031660e0909101529392505050565b60a081526000610b4960a0830188610a67565b6020830196909652506001600160a01b039390931660408401529015156060830152608090910152919050565b600082610b9157634e487b7160e01b81526012600452602481fd5b500490565b600181811c90821680610baa57607f821691505b60208210811415610bcb57634e487b7160e01b600052602260045260246000fd5b50919050565b6000600019821415610bf157634e487b7160e01b81526011600452602481fd5b5060010190565b634e487b7160e01b600052604160045260246000fd5b6001600160a01b0381168114610c2357600080fd5b5056fea26469706673582212208f825c01f075d1e872296131bd5b021b82663e58c1743df0ec668781efa195b964736f6c63430008040033",
  "linkReferences": {},
  "deployedLinkReferences": {}
}