{
  "_format": "hh-sol-artifact-1",
  "contractName": "InvoiceFlowContract",
  "sourceName": "contracts/InvoiceFlowContract.sol",
  "abi": [
    {
      "inputs": [
        {
          "internalType": "address[]",
          "name": "_owners",
          "type": "address[]"
        },
        {
          "internalType": "address",
          "name": "_withdrawAddress",
          "type": "address"
        },
        {
          "internalType": "address[]",
          "name": "_acceptedTokens",
          "type": "address[]"
        },
        {
          "internalType": "uint8",
          "name": "_requiredOwnersApprovals",
          "type": "uint8"
        }
      ],
      "stateMutability": "nonpayable",
      "type": "constructor"
    },
    {
      "anonymous": false,
      "inputs": [
        {
          "indexed": false,
          "internalType": "uint256",
          "name": "_id",
          "type": "uint256"
        },
        {
          "indexed": false,
          "internalType": "address",
          "name": "_customer",
          "type": "address"
        },
        {
          "indexed": false,
          "internalType": "uint256",
          "name": "_amount",
          "type": "uint256"
        },
        {
          "indexed": false,
          "internalType": "address",
          "name": "_token",
          "type": "address"
        },
        {
          "indexed": false,
          "internalType": "uint256",
          "name": "_expiration",
          "type": "uint256"
        }
      ],
      "name": "InvoicePaid",
      "type": "event"
    },
    {
      "anonymous": false,
      "inputs": [
        {
          "indexed": false,
          "internalType": "uint256",
          "name": "_id",
          "type": "uint256"
        },
        {
          "indexed": false,
          "internalType": "address",
          "name": "_customer",
          "type": "address"
        },
        {
          "indexed": false,
          "internalType": "uint256",
          "name": "_amount",
          "type": "uint256"
        },
        {
          "indexed": false,
          "internalType": "address",
          "name": "_token",
          "type": "address"
        },
        {
          "indexed": false,
          "internalType": "uint256",
          "name": "_expiration",
          "type": "uint256"
        }
      ],
      "name": "InvoiceRegistered",
      "type": "event"
    },
    {
      "anonymous": false,
      "inputs": [
        {
          "indexed": false,
          "internalType": "uint256",
          "name": "_id",
          "type": "uint256"
        },
        {
          "indexed": false,
          "internalType": "address",
          "name": "_customer",
          "type": "address"
        },
        {
          "indexed": false,
          "internalType": "uint256",
          "name": "_amount",
          "type": "uint256"
        },
        {
          "indexed": false,
          "internalType": "address",
          "name": "_token",
          "type": "address"
        },
        {
          "indexed": false,
          "internalType": "uint256",
          "name": "_expiration",
          "type": "uint256"
        }
      ],
      "name": "InvoiceRemoved",
      "type": "event"
    },
    {
      "anonymous": false,
      "inputs": [
        {
          "indexed": false,
          "internalType": "address",
          "name": "_newAddress",
          "type": "address"
        },
        {
          "indexed": false,
          "internalType": "address",
          "name": "_submitter",
          "type": "address"
        }
      ],
      "name": "WithdrawAddressChangeApproved",
      "type": "event"
    },
    {
      "anonymous": false,
      "inputs": [
        {
          "indexed": false,
          "internalType": "address",
          "name": "_newAddress",
          "type": "address"
        },
        {
          "indexed": false,
          "internalType": "address",
          "name": "_submitter",
          "type": "address"
        }
      ],
      "name": "WithdrawAddressChangeRequested",
      "type": "event"
    },
    {
      "anonymous": false,
      "inputs": [
        {
          "indexed": false,
          "internalType": "address",
          "name": "_oldAddress",
          "type": "address"
        },
        {
          "indexed": false,
          "internalType": "address",
          "name": "_newAddress",
          "type": "address"
        }
      ],
      "name": "WithdrawAddressChanged",
      "type": "event"
    },
    {
      "anonymous": false,
      "inputs": [
        {
          "indexed": false,
          "internalType": "uint256",
          "name": "_id",
          "type": "uint256"
        },
        {
          "indexed": false,
          "internalType": "address",
          "name": "_approver",
          "type": "address"
        },
        {
          "indexed": false,
          "internalType": "uint256",
          "name": "_amount",
          "type": "uint256"
        },
        {
          "indexed": false,
          "internalType": "address",
          "name": "_token",
          "type": "address"
        }
      ],
      "name": "WithdrawRequestApproved",
      "type": "event"
    },
    {
      "anonymous": false,
      "inputs": [
        {
          "indexed": false,
          "internalType": "uint256",
          "name": "_id",
          "type": "uint256"
        },
        {
          "indexed": false,
          "internalType": "uint256",
          "name": "_amount",
          "type": "uint256"
        },
        {
          "indexed": false,
          "internalType": "address",
          "name": "_token",
          "type": "address"
        },
        {
          "indexed": false,
          "internalType": "bool",
          "name": "_executed",
          "type": "bool"
        }
      ],
      "name": "WithdrawRequestExecuted",
      "type": "event"
    },
    {
      "anonymous": false,
      "inputs": [
        {
          "indexed": false,
          "internalType": "uint256",
          "name": "_id",
          "type": "uint256"
        },
        {
          "indexed": false,
          "internalType": "uint256",
          "name": "_amount",
          "type": "uint256"
        },
        {
          "indexed": false,
          "internalType": "address",
          "name": "_token",
          "type": "address"
        },
        {
          "indexed": false,
          "internalType": "bool",
          "name": "_executed",
          "type": "bool"
        }
      ],
      "name": "WithdrawRequestRegistered",
      "type": "event"
    },
    {
      "inputs": [
        {
          "internalType": "uint256",
          "name": "_id",
          "type": "uint256"
        }
      ],
      "name": "approveWithdrawRequest",
      "outputs": [],
      "stateMutability": "nonpayable",
      "type": "function"
    },
    {
      "inputs": [
        {
          "internalType": "address",
          "name": "_newAddress",
          "type": "address"
        }
      ],
      "name": "changeWithdrawAddressRequest",
      "outputs": [],
      "stateMutability": "nonpayable",
      "type": "function"
    },
    {
      "inputs": [],
      "name": "confirmWithdrawAddressChange",
      "outputs": [],
      "stateMutability": "nonpayable",
      "type": "function"
    },
    {
      "inputs": [
        {
          "internalType": "uint256",
          "name": "_id",
          "type": "uint256"
        }
      ],
      "name": "executeWithdrawRequest",
      "outputs": [],
      "stateMutability": "payable",
      "type": "function"
    },
    {
      "inputs": [
        {
          "internalType": "uint256",
          "name": "_invoiceId",
          "type": "uint256"
        }
      ],
      "name": "handleTransfer",
      "outputs": [],
      "stateMutability": "payable",
      "type": "function"
    },
    {
      "inputs": [
        {
          "internalType": "uint256",
          "name": "",
          "type": "uint256"
        }
      ],
      "name": "invoices",
      "outputs": [
        {
          "internalType": "address",
          "name": "customer",
          "type": "address"
        },
        {
          "internalType": "uint256",
          "name": "id",
          "type": "uint256"
        },
        {
          "internalType": "uint256",
          "name": "amount",
          "type": "uint256"
        },
        {
          "internalType": "address",
          "name": "token",
          "type": "address"
        },
        {
          "internalType": "uint256",
          "name": "expiration",
          "type": "uint256"
        }
      ],
      "stateMutability": "view",
      "type": "function"
    },
    {
      "inputs": [
        {
          "internalType": "uint256",
          "name": "_id",
          "type": "uint256"
        }
      ],
      "name": "isWithdrawConfirmed",
      "outputs": [
        {
          "internalType": "bool",
          "name": "",
          "type": "bool"
        }
      ],
      "stateMutability": "view",
      "type": "function"
    },
    {
      "inputs": [],
      "name": "newWithdrawAddress",
      "outputs": [
        {
          "internalType": "address",
          "name": "",
          "type": "address"
        }
      ],
      "stateMutability": "view",
      "type": "function"
    },
    {
      "inputs": [
        {
          "internalType": "uint256",
          "name": "",
          "type": "uint256"
        }
      ],
      "name": "owners",
      "outputs": [
        {
          "internalType": "address",
          "name": "",
          "type": "address"
        }
      ],
      "stateMutability": "view",
      "type": "function"
    },
    {
      "inputs": [
        {
          "internalType": "address",
          "name": "",
          "type": "address"
        }
      ],
      "name": "ownersMappings",
      "outputs": [
        {
          "internalType": "bool",
          "name": "",
          "type": "bool"
        }
      ],
      "stateMutability": "view",
      "type": "function"
    },
    {
      "inputs": [
        {
          "internalType": "uint256",
          "name": "_invoiceId",
          "type": "uint256"
        },
        {
          "internalType": "address",
          "name": "_customer",
          "type": "address"
        },
        {
          "internalType": "uint256",
          "name": "_amount",
          "type": "uint256"
        },
        {
          "internalType": "address",
          "name": "_token",
          "type": "address"
        },
        {
          "internalType": "uint256",
          "name": "_expiresInSec",
          "type": "uint256"
        }
      ],
      "name": "registerInvoice",
      "outputs": [],
      "stateMutability": "nonpayable",
      "type": "function"
    },
    {
      "inputs": [
        {
          "internalType": "uint256",
          "name": "_amount",
          "type": "uint256"
        },
        {
          "internalType": "address",
          "name": "_token",
          "type": "address"
        }
      ],
      "name": "registerWithdrawRequest",
      "outputs": [
        {
          "internalType": "uint256",
          "name": "",
          "type": "uint256"
        }
      ],
      "stateMutability": "nonpayable",
      "type": "function"
    },
    {
      "inputs": [
        {
          "internalType": "uint256",
          "name": "_invoiceId",
          "type": "uint256"
        }
      ],
      "name": "removeInvoice",
      "outputs": [],
      "stateMutability": "nonpayable",
      "type": "function"
    },
    {
      "inputs": [],
      "name": "requiredOwnersApprovals",
      "outputs": [
        {
          "internalType": "uint256",
          "name": "",
          "type": "uint256"
        }
      ],
      "stateMutability": "view",
      "type": "function"
    },
    {
      "inputs": [],
      "name": "withdrawAddress",
      "outputs": [
        {
          "internalType": "address",
          "name": "",
          "type": "address"
        }
      ],
      "stateMutability": "view",
      "type": "function"
    },
    {
      "inputs": [
        {
          "internalType": "address",
          "name": "",
          "type": "address"
        }
      ],
      "name": "withdrawAddressChangeApprovals",
      "outputs": [
        {
          "internalType": "bool",
          "name": "",
          "type": "bool"
        }
      ],
      "stateMutability": "view",
      "type": "function"
    },
    {
      "inputs": [],
      "name": "withdrawAddressChangeConfirmationsCount",
      "outputs": [
        {
          "internalType": "uint256",
          "name": "",
          "type": "uint256"
        }
      ],
      "stateMutability": "view",
      "type": "function"
    },
    {
      "inputs": [
        {
          "internalType": "uint256",
          "name": "_id",
          "type": "uint256"
        }
      ],
      "name": "withdrawRequestConfirmationsCount",
      "outputs": [
        {
          "internalType": "uint256",
          "name": "",
          "type": "uint256"
        }
      ],
      "stateMutability": "view",
      "type": "function"
    },
    {
      "inputs": [
        {
          "internalType": "uint256",
          "name": "",
          "type": "uint256"
        }
      ],
      "name": "withdrawRequests",
      "outputs": [
        {
          "internalType": "uint256",
          "name": "id",
          "type": "uint256"
        },
        {
          "internalType": "uint256",
          "name": "amount",
          "type": "uint256"
        },
        {
          "internalType": "address",
          "name": "token",
          "type": "address"
        },
        {
          "internalType": "bool",
          "name": "executed",
          "type": "bool"
        },
        {
          "internalType": "bytes",
          "name": "data",
          "type": "bytes"
        }
      ],
      "stateMutability": "view",
      "type": "function"
    }
  ],
  "bytecode": "0x608060405260006005553480156200001657600080fd5b50604051620063d5380380620063d583398181016040528101906200003c919062000b12565b6200005867d74775734636b80360c01b6200077360201b60201c565b620000746740fc57b7a3520a1660c01b6200077360201b60201c565b62000090677ec5c4c5a39be9f660c01b6200077360201b60201c565b620000ac6706740192e16c919460c01b6200077360201b60201c565b6000845111620000f3576040517f08c379a0000000000000000000000000000000000000000000000000000000008152600401620000ea9062000c23565b60405180910390fd5b6200010f678cd809d7b2b5c09260c01b6200077360201b60201c565b6200012b67e54c794c5d5d884360c01b6200077360201b60201c565b6200014767487309544107a57460c01b6200077360201b60201c565b62000163674dbf00f4261e7a0960c01b6200077360201b60201c565b600073ffffffffffffffffffffffffffffffffffffffff168373ffffffffffffffffffffffffffffffffffffffff161415620001d6576040517f08c379a0000000000000000000000000000000000000000000000000000000008152600401620001cd9062000c95565b60405180910390fd5b620001f267f2ea65366865046660c01b6200077360201b60201c565b6200020e67c901770263f0a83760c01b6200077360201b60201c565b6200022a6796b76eb852103dbe60c01b6200077360201b60201c565b62000246678c5021fc1af3dffa60c01b6200077360201b60201c565b83518160ff16111562000290576040517f08c379a0000000000000000000000000000000000000000000000000000000008152600401620002879062000d07565b60405180910390fd5b620002ac673a6ada794163a07e60c01b6200077360201b60201c565b620002c867571019e941fd7a4460c01b6200077360201b60201c565b8060ff16600781905550620002ee67ecff7df7f884435260c01b6200077360201b60201c565b33600a60006101000a81548173ffffffffffffffffffffffffffffffffffffffff021916908373ffffffffffffffffffffffffffffffffffffffff1602179055506200034b67d9b160dfe5e863b060c01b6200077360201b60201c565b82600660006101000a81548173ffffffffffffffffffffffffffffffffffffffff021916908373ffffffffffffffffffffffffffffffffffffffff160217905550620003a86710b631e611c70ca560c01b6200077360201b60201c565b620003c467b678563d096d73fa60c01b6200077360201b60201c565b600084519050620003e6679449cf1aa0f098e260c01b6200077360201b60201c565b8460089080519060200190620003fe92919062000838565b506200041b670dc6e6a30543d0f960c01b6200077360201b60201c565b6200043767c1c85b1fd06f698160c01b6200077360201b60201c565b60005b81811015620004ea576200045f679c7f4a05d845ea7b60c01b6200077360201b60201c565b6001600960008884815181106200047b576200047a62000d29565b5b602002602001015173ffffffffffffffffffffffffffffffffffffffff1673ffffffffffffffffffffffffffffffffffffffff16815260200190815260200160002060006101000a81548160ff0219169083151502179055508080620004e19062000d91565b9150506200043a565b506200050767f25c179946fb1cb660c01b6200077360201b60201c565b60018060008073ffffffffffffffffffffffffffffffffffffffff1673ffffffffffffffffffffffffffffffffffffffff16815260200190815260200160002060006101000a81548160ff0219169083151502179055506200057a67c4991202188090ee60c01b6200077360201b60201c565b62000596672b706f40affb44d360c01b6200077360201b60201c565b600083519050620005b867391c66e990ddb50660c01b6200077360201b60201c565b620005d467dbd181f6a7dd615860c01b6200077360201b60201c565b60005b818110156200076657620005fc673d74bc8f565eb97e60c01b6200077360201b60201c565b62000618671dc182795de703b360c01b6200077360201b60201c565b6200063467b472f6c597249e7760c01b6200077360201b60201c565b620006628582815181106200064e576200064d62000d29565b5b60200260200101516200077660201b60201c565b620006a4576040517f08c379a00000000000000000000000000000000000000000000000000000000081526004016200069b9062000e2f565b60405180910390fd5b620006c067804e0b39342e40e160c01b6200077360201b60201c565b620006dc67ae8b49b8b0d8c0d460c01b6200077360201b60201c565b6001806000878481518110620006f757620006f662000d29565b5b602002602001015173ffffffffffffffffffffffffffffffffffffffff1673ffffffffffffffffffffffffffffffffffffffff16815260200190815260200160002060006101000a81548160ff02191690831515021790555080806200075d9062000d91565b915050620005d7565b5050505050505062000e51565b50565b60006200079467f5a9589770eac71d60c01b6200077360201b60201c565b620007b067fe70624b3abb433360c01b6200077360201b60201c565b620007cc671a09857d4bab79fe60c01b6200077360201b60201c565b6000620007ea67a5a3c07858d6d00960c01b6200077360201b60201c565b823b90506200080a674d31e1085520227f60c01b6200077360201b60201c565b6200082667ba96ca720aa32c5d60c01b6200077360201b60201c565b60008163ffffffff1611915050919050565b828054828255906000526020600020908101928215620008b4579160200282015b82811115620008b35782518260006101000a81548173ffffffffffffffffffffffffffffffffffffffff021916908373ffffffffffffffffffffffffffffffffffffffff1602179055509160200191906001019062000859565b5b509050620008c39190620008c7565b5090565b5b80821115620008e2576000816000905550600101620008c8565b5090565b6000604051905090565b600080fd5b600080fd5b600080fd5b6000601f19601f8301169050919050565b7f4e487b7100000000000000000000000000000000000000000000000000000000600052604160045260246000fd5b6200094a82620008ff565b810181811067ffffffffffffffff821117156200096c576200096b62000910565b5b80604052505050565b600062000981620008e6565b90506200098f82826200093f565b919050565b600067ffffffffffffffff821115620009b257620009b162000910565b5b602082029050602081019050919050565b600080fd5b600073ffffffffffffffffffffffffffffffffffffffff82169050919050565b6000620009f582620009c8565b9050919050565b62000a0781620009e8565b811462000a1357600080fd5b50565b60008151905062000a2781620009fc565b92915050565b600062000a4462000a3e8462000994565b62000975565b9050808382526020820190506020840283018581111562000a6a5762000a69620009c3565b5b835b8181101562000a97578062000a82888262000a16565b84526020840193505060208101905062000a6c565b5050509392505050565b600082601f83011262000ab95762000ab8620008fa565b5b815162000acb84826020860162000a2d565b91505092915050565b600060ff82169050919050565b62000aec8162000ad4565b811462000af857600080fd5b50565b60008151905062000b0c8162000ae1565b92915050565b6000806000806080858703121562000b2f5762000b2e620008f0565b5b600085015167ffffffffffffffff81111562000b505762000b4f620008f5565b5b62000b5e8782880162000aa1565b945050602062000b718782880162000a16565b935050604085015167ffffffffffffffff81111562000b955762000b94620008f5565b5b62000ba38782880162000aa1565b925050606062000bb68782880162000afb565b91505092959194509250565b600082825260208201905092915050565b7f4f574e4552535f4152455f524551554952454400000000000000000000000000600082015250565b600062000c0b60138362000bc2565b915062000c188262000bd3565b602082019050919050565b6000602082019050818103600083015262000c3e8162000bfc565b9050919050565b7f57495448445241575f414444524553535f524551554952454400000000000000600082015250565b600062000c7d60198362000bc2565b915062000c8a8262000c45565b602082019050919050565b6000602082019050818103600083015262000cb08162000c6e565b9050919050565b7f494e56414c49445f415050524f56414c535f4e554d4245520000000000000000600082015250565b600062000cef60188362000bc2565b915062000cfc8262000cb7565b602082019050919050565b6000602082019050818103600083015262000d228162000ce0565b9050919050565b7f4e487b7100000000000000000000000000000000000000000000000000000000600052603260045260246000fd5b7f4e487b7100000000000000000000000000000000000000000000000000000000600052601160045260246000fd5b6000819050919050565b600062000d9e8262000d87565b91507fffffffffffffffffffffffffffffffffffffffffffffffffffffffffffffffff82141562000dd45762000dd362000d58565b5b600182019050919050565b7f494e56414c49445f544f4b454e5f414444524553530000000000000000000000600082015250565b600062000e1760158362000bc2565b915062000e248262000ddf565b602082019050919050565b6000602082019050818103600083015262000e4a8162000e08565b9050919050565b6155748062000e616000396000f3fe6080604052600436106101145760003560e01c80636d0aad85116100a0578063d75e172f11610064578063d75e172f146103c5578063d854ce47146103ee578063ebb1a6e914610419578063f296727c14610442578063f6ede2611461047f57610114565b80636d0aad85146102c8578063992a7dfb146103055780639dbdfa3814610346578063a768e83b14610383578063b7a55f4a1461039a57610114565b80633e9dee48116100e75780633e9dee48146101b95780634e6d1405146101e25780635731f10e1461022357806364f054501461024e578063660fafb41461028b57610114565b8063025e7c27146101195780631581b6001461015657806321ebfdda146101815780632c87cc801461019d575b600080fd5b34801561012557600080fd5b50610140600480360381019061013b91906143d9565b6104a8565b60405161014d9190614447565b60405180910390f35b34801561016257600080fd5b5061016b6104e7565b6040516101789190614447565b60405180910390f35b61019b600480360381019061019691906143d9565b61050d565b005b6101b760048036038101906101b291906143d9565b610eb9565b005b3480156101c557600080fd5b506101e060048036038101906101db919061448e565b61164a565b005b3480156101ee57600080fd5b50610209600480360381019061020491906143d9565b6119cf565b60405161021a9594939291906144ca565b60405180910390f35b34801561022f57600080fd5b50610238611a45565b604051610245919061451d565b60405180910390f35b34801561025a57600080fd5b50610275600480360381019061027091906143d9565b611a4b565b604051610282919061451d565b60405180910390f35b34801561029757600080fd5b506102b260048036038101906102ad919061448e565b611c2b565b6040516102bf9190614553565b60405180910390f35b3480156102d457600080fd5b506102ef60048036038101906102ea919061456e565b611c4b565b6040516102fc919061451d565b60405180910390f35b34801561031157600080fd5b5061032c600480360381019061032791906143d9565b611de1565b60405161033d959493929190614647565b60405180910390f35b34801561035257600080fd5b5061036d600480360381019061036891906143d9565b611ecc565b60405161037a9190614553565b60405180910390f35b34801561038f57600080fd5b50610398611f1f565b005b3480156103a657600080fd5b506103af6124e0565b6040516103bc9190614447565b60405180910390f35b3480156103d157600080fd5b506103ec60048036038101906103e791906143d9565b612506565b005b3480156103fa57600080fd5b5061040361297a565b604051610410919061451d565b60405180910390f35b34801561042557600080fd5b50610440600480360381019061043b91906143d9565b612b44565b005b34801561044e57600080fd5b506104696004803603810190610464919061448e565b612f1a565b6040516104769190614553565b60405180910390f35b34801561048b57600080fd5b506104a660048036038101906104a191906146a1565b612f3a565b005b600881815481106104b857600080fd5b906000526020600020016000915054906101000a900473ffffffffffffffffffffffffffffffffffffffff1681565b600660009054906101000a900473ffffffffffffffffffffffffffffffffffffffff1681565b6105216796b4668ab4d0f38260c01b613608565b61053567eb0b6b9df60e29e460c01b613608565b61054967f8053993390fe20f60c01b613608565b6000806000838152602001908152602001600020905061057367dd5ffa80700ee6b960c01b613608565b610587673d7ffa4bdd24408360c01b613608565b61059b67d62f702d941115f060c01b613608565b818160010154146105e1576040517f08c379a00000000000000000000000000000000000000000000000000000000081526004016105d890614779565b60405180910390fd5b6105f567dd2c2acca511eb4e60c01b613608565b6106096752bdbf1e7155808160c01b613608565b61061d67ad8fa47f1deb967e60c01b613608565b610631676c5d44e8cebabac660c01b613608565b3373ffffffffffffffffffffffffffffffffffffffff168160000160009054906101000a900473ffffffffffffffffffffffffffffffffffffffff1673ffffffffffffffffffffffffffffffffffffffff16146106c3576040517f08c379a00000000000000000000000000000000000000000000000000000000081526004016106ba906147e5565b60405180910390fd5b6106d767e3852cf67b589c6160c01b613608565b6106eb6710e1bcd43074855860c01b613608565b6106ff67e63681e4cc387dda60c01b613608565b61071367dc0d69e65a26068f60c01b613608565b806004015442111561075a576040517f08c379a000000000000000000000000000000000000000000000000000000000815260040161075190614851565b60405180910390fd5b61076e67e63312c9d38935b460c01b613608565b61078267e2cd68a776e454e260c01b613608565b61079667b897373099b6122c60c01b613608565b6107c38160030160009054906101000a900473ffffffffffffffffffffffffffffffffffffffff1661360b565b15610c6b576107dc6702dcbc1880e3392b60c01b613608565b6107f06701bd1f0af4a9ea4760c01b613608565b61080467b1bb6ae952e385a160c01b613608565b60008160030160009054906101000a900473ffffffffffffffffffffffffffffffffffffffff16905061084167e80814ad5a47686f60c01b613608565b61085567354a94ba610424da60c01b613608565b6108696749e22d34c22ebf5b60c01b613608565b81600201548173ffffffffffffffffffffffffffffffffffffffff1663dd62ed3e33306040518363ffffffff1660e01b81526004016108a9929190614871565b60206040518083038186803b1580156108c157600080fd5b505afa1580156108d5573d6000803e3d6000fd5b505050506040513d601f19601f820116820180604052508101906108f991906148af565b101561093a576040517f08c379a000000000000000000000000000000000000000000000000000000000815260040161093190614928565b60405180910390fd5b61094e67dae00be80b49e08e60c01b613608565b61096267763f4f30afdc11f260c01b613608565b61097667e0c3f29196e3414c60c01b613608565b61098a671bf5c765afff6dc960c01b613608565b81600201548173ffffffffffffffffffffffffffffffffffffffff166370a08231336040518263ffffffff1660e01b81526004016109c89190614447565b60206040518083038186803b1580156109e057600080fd5b505afa1580156109f4573d6000803e3d6000fd5b505050506040513d601f19601f82011682018060405250810190610a1891906148af565b1015610a59576040517f08c379a0000000000000000000000000000000000000000000000000000000008152600401610a5090614994565b60405180910390fd5b610a6d67314f0320d5e019e760c01b613608565b610a81671ae2e077ffbbcf8260c01b613608565b610a9567cff2a7feff1c6b6c60c01b613608565b610ac6333084600201548473ffffffffffffffffffffffffffffffffffffffff1661369d909392919063ffffffff16565b610ada672974f3a4ba52d50d60c01b613608565b610aee6714793d75b895817660c01b613608565b7f1e9d5d6c031b4874171949ea430d3fb4672ea0580b179f82f6f1439e9b8be5c76000808581526020019081526020016000206001015460008086815260200190815260200160002060000160009054906101000a900473ffffffffffffffffffffffffffffffffffffffff166000808781526020019081526020016000206002015460008088815260200190815260200160002060030160009054906101000a900473ffffffffffffffffffffffffffffffffffffffff1660008089815260200190815260200160002060040154604051610bce9594939291906149b4565b60405180910390a1610bea6755befecba9a753cd60c01b613608565b600080848152602001908152602001600020600080820160006101000a81549073ffffffffffffffffffffffffffffffffffffffff0219169055600182016000905560028201600090556003820160006101000a81549073ffffffffffffffffffffffffffffffffffffffff02191690556004820160009055505050610eb5565b610c7f6757a61309d02ed01460c01b613608565b610c9367c7f4df30677c628660c01b613608565b610ca767f9f529cfdc9052fe60c01b613608565b610cbb67020d5819b068a34660c01b613608565b34816002015414610d01576040517f08c379a0000000000000000000000000000000000000000000000000000000008152600401610cf890614a53565b60405180910390fd5b610d156710fe44b5f20f552e60c01b613608565b610d296767d994feb3bfb17860c01b613608565b610d3d674be4688f1ac2f2b160c01b613608565b7f1e9d5d6c031b4874171949ea430d3fb4672ea0580b179f82f6f1439e9b8be5c76000808481526020019081526020016000206001015460008085815260200190815260200160002060000160009054906101000a900473ffffffffffffffffffffffffffffffffffffffff166000808681526020019081526020016000206002015460008087815260200190815260200160002060030160009054906101000a900473ffffffffffffffffffffffffffffffffffffffff1660008088815260200190815260200160002060040154604051610e1d9594939291906149b4565b60405180910390a1610e3967265508cdc9fa6fab60c01b613608565b600080838152602001908152602001600020600080820160006101000a81549073ffffffffffffffffffffffffffffffffffffffff0219169055600182016000905560028201600090556003820160006101000a81549073ffffffffffffffffffffffffffffffffffffffff0219169055600482016000905550505b5050565b610ecd676cc76c1f9f62ae6060c01b613608565b610ee1672e0403c263355a9960c01b613608565b610ef5671efebb88a03b889660c01b613608565b610f096788576340bb9d96ab60c01b613608565b610f1d67858a8eaaecfde14460c01b613608565b610f25613726565b610f64576040517f08c379a0000000000000000000000000000000000000000000000000000000008152600401610f5b90614abf565b60405180910390fd5b610f78672cc6631fd6abfc5a60c01b613608565b610f8c678450f74ffa9b002f60c01b613608565b610fa067ae32b45969e4059a60c01b613608565b610fb467abb2d99d53773b4460c01b613608565b610fc867c3c0a677190ebea660c01b613608565b610fdc6764a696dbea4be76160c01b613608565b610ff067cf475771b4809ff360c01b613608565b610ff981611ecc565b611038576040517f08c379a000000000000000000000000000000000000000000000000000000000815260040161102f90614b2b565b60405180910390fd5b61104c6740aac9b7ea2f9c6d60c01b613608565b611060671bcdf643ee757c6560c01b613608565b61107467bb9fc7953b29613b60c01b613608565b611088672c08f3b26df575e760c01b613608565b600015156002600083815260200190815260200160002060020160149054906101000a900460ff161515146110f2576040517f08c379a00000000000000000000000000000000000000000000000000000000081526004016110e990614b97565b60405180910390fd5b61110667ce50ef455494ecff60c01b613608565b61111a676f5b95979bca922d60c01b613608565b61112e670fd411f9bb0e00ea60c01b613608565b600073ffffffffffffffffffffffffffffffffffffffff166002600083815260200190815260200160002060020160009054906101000a900473ffffffffffffffffffffffffffffffffffffffff1673ffffffffffffffffffffffffffffffffffffffff1614156113e5576111ad6774f7144fd76ac5c660c01b613608565b6111c167ed188a859ae0b35860c01b613608565b6111d567acc0ac23a9a4482f60c01b613608565b6000600660009054906101000a900473ffffffffffffffffffffffffffffffffffffffff1673ffffffffffffffffffffffffffffffffffffffff1660026000848152602001908152602001600020600101546002600085815260200190815260200160002060030160405161124a9190614cb7565b60006040518083038185875af1925050503d8060008114611287576040519150601f19603f3d011682016040523d82523d6000602084013e61128c565b606091505b505090506112a467f29ba9ed5ce6eba560c01b613608565b6112b8677fc8018b3fd6624160c01b613608565b6112cc677a9473e67d2e10f660c01b613608565b806112d657600080fd5b6112ea674987736dc9e8c73c60c01b613608565b6112fe67a38e4ac7353a8eb460c01b613608565b60016002600084815260200190815260200160002060020160146101000a81548160ff02191690831515021790555061134167d50267a7697c4e1560c01b613608565b611355674bbc3228b3c32dcb60c01b613608565b7fd06473f54f367f5bec1000de7268f9b7f60b1da5f67c03fae9186fdbf320dba98260026000858152602001908152602001600020600101546002600086815260200190815260200160002060020160009054906101000a900473ffffffffffffffffffffffffffffffffffffffff1660016040516113d79493929190614cce565b60405180910390a150611647565b6113f9672144ed373839649660c01b613608565b61140d6718f38a291edf9cd160c01b613608565b61142167ccd4cdef5804fc7760c01b613608565b60006002600083815260200190815260200160002060020160009054906101000a900473ffffffffffffffffffffffffffffffffffffffff16905061147067a3816554162b55df60c01b613608565b61148467dce662d181ac09c160c01b613608565b6114c53060026000858152602001908152602001600020600101548373ffffffffffffffffffffffffffffffffffffffff166137b69092919063ffffffff16565b6114d967cf0add19a6f8bd2f60c01b613608565b6114ed67c09b8beeaf821bb360c01b613608565b611550600660009054906101000a900473ffffffffffffffffffffffffffffffffffffffff1660026000858152602001908152602001600020600101548373ffffffffffffffffffffffffffffffffffffffff166139149092919063ffffffff16565b6115646790eac92a1454e4fe60c01b613608565b60016002600084815260200190815260200160002060020160146101000a81548160ff0219169083151502179055506115a7672bfc22c18d9edc5d60c01b613608565b6115bb677547eff8e0fbb05f60c01b613608565b7fd06473f54f367f5bec1000de7268f9b7f60b1da5f67c03fae9186fdbf320dba98260026000858152602001908152602001600020600101546002600086815260200190815260200160002060020160009054906101000a900473ffffffffffffffffffffffffffffffffffffffff16600160405161163d9493929190614cce565b60405180910390a1505b50565b61165e67fd85ba5b6d94fd6160c01b613608565b611672672e0403c263355a9960c01b613608565b611686671efebb88a03b889660c01b613608565b61169a6788576340bb9d96ab60c01b613608565b6116ae67858a8eaaecfde14460c01b613608565b6116b6613726565b6116f5576040517f08c379a00000000000000000000000000000000000000000000000000000000081526004016116ec90614abf565b60405180910390fd5b611709672cc6631fd6abfc5a60c01b613608565b61171d678450f74ffa9b002f60c01b613608565b61173167284a597dcc03342660c01b613608565b611745676b725387cc9c0bfc60c01b613608565b611759671f8e0e543fc18d1460c01b613608565b61176d677a6a3b9fe6741c1460c01b613608565b61178167b822247497614d3060c01b613608565b600073ffffffffffffffffffffffffffffffffffffffff168173ffffffffffffffffffffffffffffffffffffffff1614156117f1576040517f08c379a00000000000000000000000000000000000000000000000000000000081526004016117e890614d5f565b60405180910390fd5b6118056770cfeb164039e1ea60c01b613608565b611819670e0774f495aa9fd560c01b613608565b61182d677d0643c91523755160c01b613608565b61184167e313f96a8a1375eb60c01b613608565b8073ffffffffffffffffffffffffffffffffffffffff16600660009054906101000a900473ffffffffffffffffffffffffffffffffffffffff1673ffffffffffffffffffffffffffffffffffffffff1614156118d2576040517f08c379a00000000000000000000000000000000000000000000000000000000081526004016118c990614dcb565b60405180910390fd5b6118e667458fe9732431258e60c01b613608565b6118fa672d41f2af1f276ecf60c01b613608565b80600460006101000a81548173ffffffffffffffffffffffffffffffffffffffff021916908373ffffffffffffffffffffffffffffffffffffffff16021790555061194f67b59ac76eddef2cce60c01b613608565b611963670b5fd5a9b0059d0e60c01b613608565b7f2b0922972416e22d209302789a7a347ca228dcdfa06b0fb9f6530493c5434b7d8133604051611994929190614871565b60405180910390a16119b067c53501c5f78d5bed60c01b613608565b6119c467d4c02a19bcfb208260c01b613608565b6119cc611f1f565b50565b60006020528060005260406000206000915090508060000160009054906101000a900473ffffffffffffffffffffffffffffffffffffffff16908060010154908060020154908060030160009054906101000a900473ffffffffffffffffffffffffffffffffffffffff16908060040154905085565b60075481565b6000611a61674d2cb077241fecc960c01b613608565b611a75674cadea1f32eed0bc60c01b613608565b611a8967019e4d948eab5d4360c01b613608565b6000611a9f67622a466ad8e0c33a60c01b613608565b611ab3673f2396e874e6907160c01b613608565b60005b600880549050811015611bf957611ad7671795924937c58c3160c01b613608565b611aeb675667783441f2afe360c01b613608565b6001151560026000868152602001908152602001600020600401600060088481548110611b1b57611b1a614deb565b5b9060005260206000200160009054906101000a900473ffffffffffffffffffffffffffffffffffffffff1673ffffffffffffffffffffffffffffffffffffffff1673ffffffffffffffffffffffffffffffffffffffff16815260200190815260200160002060009054906101000a900460ff1615151415611bd157611baa6730ea2db127ec183260c01b613608565b611bbe670db0306ffc9c715060c01b613608565b8180611bc990614e49565b925050611be6565b611be56796bbf79db7ed697260c01b613608565b5b8080611bf190614e49565b915050611ab6565b50611c0e67c1877ab4c2571bea60c01b613608565b611c2267d7fd9ec363855b3260c01b613608565b80915050919050565b60096020528060005260406000206000915054906101000a900460ff1681565b6000611c616792475de7ece0726560c01b613608565b611c75672e0403c263355a9960c01b613608565b611c89671efebb88a03b889660c01b613608565b611c9d6788576340bb9d96ab60c01b613608565b611cb167858a8eaaecfde14460c01b613608565b611cb9613726565b611cf8576040517f08c379a0000000000000000000000000000000000000000000000000000000008152600401611cef90614abf565b60405180910390fd5b611d0c672cc6631fd6abfc5a60c01b613608565b611d20678450f74ffa9b002f60c01b613608565b611d34678b850db9fbf083ff60c01b613608565b611d48673d1cb887b4fe496360c01b613608565b611d5c6770a8625ec9b7f9da60c01b613608565b611d70673190d96a6c9b07be60c01b613608565b6000611d7c848461399a565b9050611d92678709191fa132db1a60c01b613608565b611da6670af04f66b37b9b6d60c01b613608565b611daf81612506565b611dc367b270c67bbab89a3260c01b613608565b611dd767284cd9dc7341562b60c01b613608565b8091505092915050565b60026020528060005260406000206000915090508060000154908060010154908060020160009054906101000a900473ffffffffffffffffffffffffffffffffffffffff16908060020160149054906101000a900460ff1690806003018054611e4990614be6565b80601f0160208091040260200160405190810160405280929190818152602001828054611e7590614be6565b8015611ec25780601f10611e9757610100808354040283529160200191611ec2565b820191906000526020600020905b815481529060010190602001808311611ea557829003601f168201915b5050505050905085565b6000611ee267474045178cf2225560c01b613608565b611ef6672c8bac423b48df5960c01b613608565b611f0a67d5582ba6a44e5f1560c01b613608565b600754611f1683611a4b565b10159050919050565b611f3367ca94d6dc2b62898860c01b613608565b611f47672e0403c263355a9960c01b613608565b611f5b671efebb88a03b889660c01b613608565b611f6f6788576340bb9d96ab60c01b613608565b611f8367858a8eaaecfde14460c01b613608565b611f8b613726565b611fca576040517f08c379a0000000000000000000000000000000000000000000000000000000008152600401611fc190614abf565b60405180910390fd5b611fde672cc6631fd6abfc5a60c01b613608565b611ff2678450f74ffa9b002f60c01b613608565b612006674cb761fab750a43060c01b613608565b61201a677de29b5a4853858660c01b613608565b61202e6732c6f516bcd4786660c01b613608565b612042679bdae2c87388ba1d60c01b613608565b61205667a614cc23a2d56a8860c01b613608565b60001515600360003373ffffffffffffffffffffffffffffffffffffffff1673ffffffffffffffffffffffffffffffffffffffff16815260200190815260200160002060009054906101000a900460ff161515146120e9576040517f08c379a00000000000000000000000000000000000000000000000000000000081526004016120e090614ede565b60405180910390fd5b6120fd67258b284d7c5bc06960c01b613608565b61211167c7f69a8a5b16bb3760c01b613608565b6001600360003373ffffffffffffffffffffffffffffffffffffffff1673ffffffffffffffffffffffffffffffffffffffff16815260200190815260200160002060006101000a81548160ff02191690831515021790555061217d67437d53e3578de10a60c01b613608565b61219167cab72d8fbbe2a82560c01b613608565b7fddba811775e7d1ebcf528735a977db455687c2efa4f71b2f394e82470872ecd1600460009054906101000a900473ffffffffffffffffffffffffffffffffffffffff16336040516121e4929190614871565b60405180910390a161220067507921dade0c546f60c01b613608565b6122146705604fea660fafc860c01b613608565b60075461221f61297a565b106124c95761223867d8938d27ec19b12260c01b613608565b61224b669ee7413de5c74260c01b613608565b61225f67a74e8f38f94c3c3660c01b613608565b6000600660009054906101000a900473ffffffffffffffffffffffffffffffffffffffff16905061229a670d505d5d0997d54f60c01b613608565b600460009054906101000a900473ffffffffffffffffffffffffffffffffffffffff16600660006101000a81548173ffffffffffffffffffffffffffffffffffffffff021916908373ffffffffffffffffffffffffffffffffffffffff1602179055506123116731d5a541ccddccd560c01b613608565b6000600460006101000a81548173ffffffffffffffffffffffffffffffffffffffff021916908373ffffffffffffffffffffffffffffffffffffffff160217905550612367676eca1bb1bd381a3e60c01b613608565b61237b67c7fd1d425886185760c01b613608565b60005b60088054905081101561243f5761239f67a16bbd1f633c348d60c01b613608565b60036000600883815481106123b7576123b6614deb565b5b9060005260206000200160009054906101000a900473ffffffffffffffffffffffffffffffffffffffff1673ffffffffffffffffffffffffffffffffffffffff1673ffffffffffffffffffffffffffffffffffffffff16815260200190815260200160002060006101000a81549060ff0219169055808061243790614e49565b91505061237e565b5061245467cbd20b1523e3b68e60c01b613608565b61246867649c9cb3dc9bc26d60c01b613608565b7f2b0922972416e22d209302789a7a347ca228dcdfa06b0fb9f6530493c5434b7d81600460009054906101000a900473ffffffffffffffffffffffffffffffffffffffff166040516124bb929190614871565b60405180910390a1506124de565b6124dd67a06f10b68d5f32aa60c01b613608565b5b565b600460009054906101000a900473ffffffffffffffffffffffffffffffffffffffff1681565b61251a67d552ffeb4109ccee60c01b613608565b61252e672e0403c263355a9960c01b613608565b612542671efebb88a03b889660c01b613608565b6125566788576340bb9d96ab60c01b613608565b61256a67858a8eaaecfde14460c01b613608565b612572613726565b6125b1576040517f08c379a00000000000000000000000000000000000000000000000000000000081526004016125a890614abf565b60405180910390fd5b6125c5672cc6631fd6abfc5a60c01b613608565b6125d9678450f74ffa9b002f60c01b613608565b6125ed673b9347809de27b6660c01b613608565b61260167f761c4060e5ef12f60c01b613608565b61261567d228a7a928209fce60c01b613608565b6126296777c74203b526c1b660c01b613608565b61263d6794d89c1353a96f2960c01b613608565b600015156002600083815260200190815260200160002060020160149054906101000a900460ff161515146126a7576040517f08c379a000000000000000000000000000000000000000000000000000000000815260040161269e90614b97565b60405180910390fd5b6126bb678ef15113c42770f360c01b613608565b6126cf6798ff306f4f2852e160c01b613608565b6126e3670fa392f891615c9c60c01b613608565b6126f7674d73f12256e94e7c60c01b613608565b600015156002600083815260200190815260200160002060040160003373ffffffffffffffffffffffffffffffffffffffff1673ffffffffffffffffffffffffffffffffffffffff16815260200190815260200160002060009054906101000a900460ff1615151461279e576040517f08c379a000000000000000000000000000000000000000000000000000000000815260040161279590614ede565b60405180910390fd5b6127b267ae1226464f80710460c01b613608565b6127c66721ff4e5ab756565460c01b613608565b60016002600083815260200190815260200160002060040160003373ffffffffffffffffffffffffffffffffffffffff1673ffffffffffffffffffffffffffffffffffffffff16815260200190815260200160002060006101000a81548160ff021916908315150217905550612846671f1c56af73088bd160c01b613608565b61285a671c7cd4949a28e32260c01b613608565b7f290e497efdb0dd5ff1b04494163110ffcef2979c5bc76a9a26a9368f2f6249f2813360026000858152602001908152602001600020600101546002600086815260200190815260200160002060020160009054906101000a900473ffffffffffffffffffffffffffffffffffffffff166040516128db9493929190614efe565b60405180910390a16128f767449424df9475752060c01b613608565b61290b670ac96144a136166260c01b613608565b61291481611ecc565b156129625761292d676f05ce5028282f5f60c01b613608565b6129406622910b067371ad60c01b613608565b61295467302042c6d318701660c01b613608565b61295d81610eb9565b612977565b61297667d8d84ae2ddea5a6660c01b613608565b5b50565b600061299067eb1c66dd9a53e9ff60c01b613608565b6129a467748d63bcafde671f60c01b613608565b6129b867776dd66fd4ab625660c01b613608565b60006129ce67f4542729ede4c63a60c01b613608565b6129e267dae872e4adec31e760c01b613608565b60005b600880549050811015612b1457612a066739b32e1073fc578760c01b613608565b612a1a67d00215e1859ee2a760c01b613608565b600115156003600060088481548110612a3657612a35614deb565b5b9060005260206000200160009054906101000a900473ffffffffffffffffffffffffffffffffffffffff1673ffffffffffffffffffffffffffffffffffffffff1673ffffffffffffffffffffffffffffffffffffffff16815260200190815260200160002060009054906101000a900460ff1615151415612aec57612ac567bba2c77c6d1407e760c01b613608565b612ad967d2783a4b1a8d949660c01b613608565b8180612ae490614e49565b925050612b01565b612b00671a783a6bfffd78e160c01b613608565b5b8080612b0c90614e49565b9150506129e5565b50612b2967b434078573100fd860c01b613608565b612b3d675b54b3e8218ece1160c01b613608565b8091505090565b612b586712ac40aff007aad360c01b613608565b612b6c672e0403c263355a9960c01b613608565b612b80671efebb88a03b889660c01b613608565b612b946788576340bb9d96ab60c01b613608565b612ba867858a8eaaecfde14460c01b613608565b612bb0613726565b612bef576040517f08c379a0000000000000000000000000000000000000000000000000000000008152600401612be690614abf565b60405180910390fd5b612c03672cc6631fd6abfc5a60c01b613608565b612c17678450f74ffa9b002f60c01b613608565b612c2b6714e402956cbca21060c01b613608565b612c3f677809e9bfd41eeaf560c01b613608565b612c5367039b73a8921725d060c01b613608565b612c6767b2b47d8db62edc7a60c01b613608565b612c7a667f674ec7677d6360c01b613608565b60008111612cbd576040517f08c379a0000000000000000000000000000000000000000000000000000000008152600401612cb490614f8f565b60405180910390fd5b612cd1671a420c26b1d23d8c60c01b613608565b612ce567979e7d9cf480254960c01b613608565b612cf9671622b6c807a6aa8260c01b613608565b612d0d67ea25dcbf0a6306a360c01b613608565b806000808381526020019081526020016000206001015414612d64576040517f08c379a0000000000000000000000000000000000000000000000000000000008152600401612d5b90614779565b60405180910390fd5b612d7867a417446e874950b960c01b613608565b612d8c67681c5bffeafff8dc60c01b613608565b612da0672ace32d346cfc15760c01b613608565b7f4a9220e3f51737c89f656dd6c1b766250e200d6d80c4f1cdcfad85909e68109e6000808381526020019081526020016000206001015460008084815260200190815260200160002060000160009054906101000a900473ffffffffffffffffffffffffffffffffffffffff166000808581526020019081526020016000206002015460008086815260200190815260200160002060030160009054906101000a900473ffffffffffffffffffffffffffffffffffffffff1660008087815260200190815260200160002060040154604051612e809594939291906149b4565b60405180910390a1612e9c67fb5353033364992960c01b613608565b600080828152602001908152602001600020600080820160006101000a81549073ffffffffffffffffffffffffffffffffffffffff0219169055600182016000905560028201600090556003820160006101000a81549073ffffffffffffffffffffffffffffffffffffffff02191690556004820160009055505050565b60036020528060005260406000206000915054906101000a900460ff1681565b612f4e677bafb43a11e67fd560c01b613608565b612f62672e0403c263355a9960c01b613608565b612f76671efebb88a03b889660c01b613608565b612f8a6788576340bb9d96ab60c01b613608565b612f9e67858a8eaaecfde14460c01b613608565b612fa6613726565b612fe5576040517f08c379a0000000000000000000000000000000000000000000000000000000008152600401612fdc90614abf565b60405180910390fd5b612ff9672cc6631fd6abfc5a60c01b613608565b61300d678450f74ffa9b002f60c01b613608565b61302167f71adf6737a9c37060c01b613608565b613035678fc5536b310e228060c01b613608565b613049677e9a14192228264d60c01b613608565b61305d67097d98106a75698c60c01b613608565b613071674078d77fe716285760c01b613608565b600083116130b4576040517f08c379a00000000000000000000000000000000000000000000000000000000081526004016130ab90614ffb565b60405180910390fd5b6130c8673e992e24af9d4d3360c01b613608565b6130dc671225d84fc719c95360c01b613608565b6130f067abc90564ea17ba3960c01b613608565b61310467480dc2fe9ee3af9460c01b613608565b600073ffffffffffffffffffffffffffffffffffffffff168473ffffffffffffffffffffffffffffffffffffffff161415613174576040517f08c379a000000000000000000000000000000000000000000000000000000000815260040161316b90614d5f565b60405180910390fd5b61318867ed284b5f4c1160d560c01b613608565b61319c67d511cf4f5ee9c52560c01b613608565b6131b067760fc5959103f58f60c01b613608565b6131c4678c3412304a04459e60c01b613608565b60008511613207576040517f08c379a00000000000000000000000000000000000000000000000000000000081526004016131fe90614f8f565b60405180910390fd5b61321b67625d1593a78f459f60c01b613608565b61322f670db489f84d6a582060c01b613608565b61324367285a6e653e2c1d7860c01b613608565b61325767783209c7c7f6718360c01b613608565b6000811161329a576040517f08c379a000000000000000000000000000000000000000000000000000000000815260040161329190615067565b60405180910390fd5b6132ae67fc0ecf1d5255931860c01b613608565b6132c267fac22aed4724c39c60c01b613608565b6132d6676e2199820d37b2f460c01b613608565b6132ea67b064835fbdc3a0d660c01b613608565b60011515600160008473ffffffffffffffffffffffffffffffffffffffff1673ffffffffffffffffffffffffffffffffffffffff16815260200190815260200160002060009054906101000a900460ff1615151461337d576040517f08c379a0000000000000000000000000000000000000000000000000000000008152600401613374906150d3565b60405180910390fd5b61339167437899f037d9e50460c01b613608565b6133a5675e9fe180af1ef18260c01b613608565b6133b9673d7cef532e5be91560c01b613608565b6133cd678a73b578603afdc360c01b613608565b60008060008781526020019081526020016000206004015414613425576040517f08c379a000000000000000000000000000000000000000000000000000000000815260040161341c9061513f565b60405180910390fd5b613439673c904018a784a80e60c01b613608565b61344d67f6f9f6f71fa6440f60c01b613608565b613461672214326fa6b8db8e60c01b613608565b6000814261346f919061515f565b9050613485674f8fae44f12a102060c01b613608565b6040518060a001604052808673ffffffffffffffffffffffffffffffffffffffff1681526020018781526020018581526020018473ffffffffffffffffffffffffffffffffffffffff1681526020018281525060008088815260200190815260200160002060008201518160000160006101000a81548173ffffffffffffffffffffffffffffffffffffffff021916908373ffffffffffffffffffffffffffffffffffffffff160217905550602082015181600101556040820151816002015560608201518160030160006101000a81548173ffffffffffffffffffffffffffffffffffffffff021916908373ffffffffffffffffffffffffffffffffffffffff160217905550608082015181600401559050506135ad6769eff048fdab998060c01b613608565b6135c1675720b91f48ed759560c01b613608565b7f5b7ac58adf4d4afccc6b58de721e6d756f26d1741c8cbfee9e890c919f972a2186868686856040516135f89594939291906149b4565b60405180910390a1505050505050565b50565b600061362167f5a9589770eac71d60c01b613608565b61363567fe70624b3abb433360c01b613608565b613649671a09857d4bab79fe60c01b613608565b600061365f67a5a3c07858d6d00960c01b613608565b823b9050613677674d31e1085520227f60c01b613608565b61368b67ba96ca720aa32c5d60c01b613608565b60008163ffffffff1611915050919050565b613720846323b872dd60e01b8585856040516024016136be939291906151b5565b604051602081830303815290604052907bffffffffffffffffffffffffffffffffffffffffffffffffffffffff19166020820180517bffffffffffffffffffffffffffffffffffffffffffffffffffffffff8381831617835250505050614066565b50505050565b600061373c67036007f2cf2fa44c60c01b613608565b6137506749c034cbe223867660c01b613608565b61376467f98839ad6fee442a60c01b613608565b600960003373ffffffffffffffffffffffffffffffffffffffff1673ffffffffffffffffffffffffffffffffffffffff16815260200190815260200160002060009054906101000a900460ff16905090565b600081148061384f575060008373ffffffffffffffffffffffffffffffffffffffff1663dd62ed3e30856040518363ffffffff1660e01b81526004016137fd929190614871565b60206040518083038186803b15801561381557600080fd5b505afa158015613829573d6000803e3d6000fd5b505050506040513d601f19601f8201168201806040525081019061384d91906148af565b145b61388e576040517f08c379a00000000000000000000000000000000000000000000000000000000081526004016138859061525e565b60405180910390fd5b61390f8363095ea7b360e01b84846040516024016138ad92919061527e565b604051602081830303815290604052907bffffffffffffffffffffffffffffffffffffffffffffffffffffffff19166020820180517bffffffffffffffffffffffffffffffffffffffffffffffffffffffff8381831617835250505050614066565b505050565b6139958363a9059cbb60e01b848460405160240161393392919061527e565b604051602081830303815290604052907bffffffffffffffffffffffffffffffffffffffffffffffffffffffff19166020820180517bffffffffffffffffffffffffffffffffffffffffffffffffffffffff8381831617835250505050614066565b505050565b60006139b067c36711ba985469da60c01b613608565b6139c4672e0403c263355a9960c01b613608565b6139d8671efebb88a03b889660c01b613608565b6139ec6788576340bb9d96ab60c01b613608565b613a0067858a8eaaecfde14460c01b613608565b613a08613726565b613a47576040517f08c379a0000000000000000000000000000000000000000000000000000000008152600401613a3e90614abf565b60405180910390fd5b613a5b672cc6631fd6abfc5a60c01b613608565b613a6f678450f74ffa9b002f60c01b613608565b613a8367f591e4ebaae1815d60c01b613608565b613a9767c0c4d980ed3af53360c01b613608565b613aab67050a2e412da1e88060c01b613608565b613abf6708aa38fb796c8a7660c01b613608565b613ad3675b5f8d2d2b0c00a660c01b613608565b60008311613b16576040517f08c379a0000000000000000000000000000000000000000000000000000000008152600401613b0d90614ffb565b60405180910390fd5b613b2a671a029ce60e815c9760c01b613608565b613b3e67e0577e42813c894860c01b613608565b613b526784d1509485f4e90a60c01b613608565b613b66677a1eda38c7c8fedd60c01b613608565b60011515600160008473ffffffffffffffffffffffffffffffffffffffff1673ffffffffffffffffffffffffffffffffffffffff16815260200190815260200160002060009054906101000a900460ff16151514613bf9576040517f08c379a0000000000000000000000000000000000000000000000000000000008152600401613bf0906150d3565b60405180910390fd5b613c0d676df347bff9f1dc7a60c01b613608565b613c21674ba92c928ac7726760c01b613608565b613c3567b8fdd5f2caa2f56660c01b613608565b600073ffffffffffffffffffffffffffffffffffffffff168273ffffffffffffffffffffffffffffffffffffffff1614613dcb57613c7d6782004b478ce4b07760c01b613608565b613c91675205cde425708dd260c01b613608565b613ca5674bb92f42b18b007d60c01b613608565b6000829050613cbe67592188d58ea6c7cc60c01b613608565b613cd267558ec7236a6eaad860c01b613608565b613ce667632b69da91b8cbea60c01b613608565b838173ffffffffffffffffffffffffffffffffffffffff166370a08231306040518263ffffffff1660e01b8152600401613d209190614447565b60206040518083038186803b158015613d3857600080fd5b505afa158015613d4c573d6000803e3d6000fd5b505050506040513d601f19601f82011682018060405250810190613d7091906148af565b1015613db1576040517f08c379a0000000000000000000000000000000000000000000000000000000008152600401613da890614994565b60405180910390fd5b613dc567821b55d4ef8897a460c01b613608565b50613e73565b613ddf671fa4692e0992eaf160c01b613608565b613df3670f9d4efb0033313f60c01b613608565b613e07674c69da74b15895ac60c01b613608565b613e1b67b12f1ee74cc9d11d60c01b613608565b82471015613e5e576040517f08c379a0000000000000000000000000000000000000000000000000000000008152600401613e5590614994565b60405180910390fd5b613e7267fefbe83f93ee074560c01b613608565b5b613e8767e98b51c018bba5e960c01b613608565b6001600554613e96919061515f565b600581905550613eb0679e6f85cc41f14c1760c01b613608565b613ec46706489dc85906b2d460c01b613608565b60006002600060055481526020019081526020016000209050613ef1670c1fe60c6514d46560c01b613608565b6005548160000181905550613f1067bb6d03c57949ef4360c01b613608565b838160010181905550613f2d677a7ecde3d103cf9a60c01b613608565b828160020160006101000a81548173ffffffffffffffffffffffffffffffffffffffff021916908373ffffffffffffffffffffffffffffffffffffffff160217905550613f84678231678ba759b4df60c01b613608565b60008160020160146101000a81548160ff021916908315150217905550613fb567484a98eb06f504d160c01b613608565b600036826003019190613fc99291906142fb565b50613fde67e5c835e3253ea11460c01b613608565b613ff26796e8c9c155bba80b60c01b613608565b7f3de41e8a78563f837e9e091c8c40d5f855aea89fcbf3ed310fb145a740e5fa3f6005548585600060405161402a9493929190614cce565b60405180910390a161404667ca4fe8136bbf648560c01b613608565b61405a67b52261bbd06d677a60c01b613608565b60055491505092915050565b60006140c8826040518060400160405280602081526020017f5361666545524332303a206c6f772d6c6576656c2063616c6c206661696c65648152508573ffffffffffffffffffffffffffffffffffffffff1661412d9092919063ffffffff16565b905060008151111561412857808060200190518101906140e891906152d3565b614127576040517f08c379a000000000000000000000000000000000000000000000000000000000815260040161411e90615372565b60405180910390fd5b5b505050565b606061413c8484600085614145565b90509392505050565b60608247101561418a576040517f08c379a000000000000000000000000000000000000000000000000000000000815260040161418190615404565b60405180910390fd5b6000808673ffffffffffffffffffffffffffffffffffffffff1685876040516141b39190615455565b60006040518083038185875af1925050503d80600081146141f0576040519150601f19603f3d011682016040523d82523d6000602084013e6141f5565b606091505b509150915061420687838387614212565b92505050949350505050565b606083156142755760008351141561426d5761422d85614288565b61426c576040517f08c379a0000000000000000000000000000000000000000000000000000000008152600401614263906154b8565b60405180910390fd5b5b829050614280565b61427f83836142ab565b5b949350505050565b6000808273ffffffffffffffffffffffffffffffffffffffff163b119050919050565b6000825111156142be5781518083602001fd5b806040517f08c379a00000000000000000000000000000000000000000000000000000000081526004016142f2919061551c565b60405180910390fd5b82805461430790614be6565b90600052602060002090601f0160209004810192826143295760008555614370565b82601f1061434257803560ff1916838001178555614370565b82800160010185558215614370579182015b8281111561436f578235825591602001919060010190614354565b5b50905061437d9190614381565b5090565b5b8082111561439a576000816000905550600101614382565b5090565b600080fd5b6000819050919050565b6143b6816143a3565b81146143c157600080fd5b50565b6000813590506143d3816143ad565b92915050565b6000602082840312156143ef576143ee61439e565b5b60006143fd848285016143c4565b91505092915050565b600073ffffffffffffffffffffffffffffffffffffffff82169050919050565b600061443182614406565b9050919050565b61444181614426565b82525050565b600060208201905061445c6000830184614438565b92915050565b61446b81614426565b811461447657600080fd5b50565b60008135905061448881614462565b92915050565b6000602082840312156144a4576144a361439e565b5b60006144b284828501614479565b91505092915050565b6144c4816143a3565b82525050565b600060a0820190506144df6000830188614438565b6144ec60208301876144bb565b6144f960408301866144bb565b6145066060830185614438565b61451360808301846144bb565b9695505050505050565b600060208201905061453260008301846144bb565b92915050565b60008115159050919050565b61454d81614538565b82525050565b60006020820190506145686000830184614544565b92915050565b600080604083850312156145855761458461439e565b5b6000614593858286016143c4565b92505060206145a485828601614479565b9150509250929050565b600081519050919050565b600082825260208201905092915050565b60005b838110156145e85780820151818401526020810190506145cd565b838111156145f7576000848401525b50505050565b6000601f19601f8301169050919050565b6000614619826145ae565b61462381856145b9565b93506146338185602086016145ca565b61463c816145fd565b840191505092915050565b600060a08201905061465c60008301886144bb565b61466960208301876144bb565b6146766040830186614438565b6146836060830185614544565b8181036080830152614695818461460e565b90509695505050505050565b600080600080600060a086880312156146bd576146bc61439e565b5b60006146cb888289016143c4565b95505060206146dc88828901614479565b94505060406146ed888289016143c4565b93505060606146fe88828901614479565b925050608061470f888289016143c4565b9150509295509295909350565b600082825260208201905092915050565b7f494e564f4943455f4e4f545f464f554e44000000000000000000000000000000600082015250565b600061476360118361471c565b915061476e8261472d565b602082019050919050565b6000602082019050818103600083015261479281614756565b9050919050565b7f435553544f4d45525f414444524553535f4e4f545f4d41544348000000000000600082015250565b60006147cf601a8361471c565b91506147da82614799565b602082019050919050565b600060208201905081810360008301526147fe816147c2565b9050919050565b7f494e564f4943455f455850495245440000000000000000000000000000000000600082015250565b600061483b600f8361471c565b915061484682614805565b602082019050919050565b6000602082019050818103600083015261486a8161482e565b9050919050565b60006040820190506148866000830185614438565b6148936020830184614438565b9392505050565b6000815190506148a9816143ad565b92915050565b6000602082840312156148c5576148c461439e565b5b60006148d38482850161489a565b91505092915050565b7f414c4c4f57414e43455f4e4f545f53554646494349454e540000000000000000600082015250565b600061491260188361471c565b915061491d826148dc565b602082019050919050565b6000602082019050818103600083015261494181614905565b9050919050565b7f494e53554646494349454e545f42414c414e4345000000000000000000000000600082015250565b600061497e60148361471c565b915061498982614948565b602082019050919050565b600060208201905081810360008301526149ad81614971565b9050919050565b600060a0820190506149c960008301886144bb565b6149d66020830187614438565b6149e360408301866144bb565b6149f06060830185614438565b6149fd60808301846144bb565b9695505050505050565b7f53454e545f414d4f554e545f4e4f545f4d415443480000000000000000000000600082015250565b6000614a3d60158361471c565b9150614a4882614a07565b602082019050919050565b60006020820190508181036000830152614a6c81614a30565b9050919050565b7f554e415554484f52495a45440000000000000000000000000000000000000000600082015250565b6000614aa9600c8361471c565b9150614ab482614a73565b602082019050919050565b60006020820190508181036000830152614ad881614a9c565b9050919050565b7f4e4f545f454e4f5547485f434f4e4649524d4154494f4e530000000000000000600082015250565b6000614b1560188361471c565b9150614b2082614adf565b602082019050919050565b60006020820190508181036000830152614b4481614b08565b9050919050565b7f57495448445241575f414c52454144595f455845435554454400000000000000600082015250565b6000614b8160198361471c565b9150614b8c82614b4b565b602082019050919050565b60006020820190508181036000830152614bb081614b74565b9050919050565b7f4e487b7100000000000000000000000000000000000000000000000000000000600052602260045260246000fd5b60006002820490506001821680614bfe57607f821691505b60208210811415614c1257614c11614bb7565b5b50919050565b600081905092915050565b60008190508160005260206000209050919050565b60008154614c4581614be6565b614c4f8186614c18565b94506001821660008114614c6a5760018114614c7b57614cae565b60ff19831686528186019350614cae565b614c8485614c23565b60005b83811015614ca657815481890152600182019150602081019050614c87565b838801955050505b50505092915050565b6000614cc38284614c38565b915081905092915050565b6000608082019050614ce360008301876144bb565b614cf060208301866144bb565b614cfd6040830185614438565b614d0a6060830184614544565b95945050505050565b7f494e56414c49445f414444524553530000000000000000000000000000000000600082015250565b6000614d49600f8361471c565b9150614d5482614d13565b602082019050919050565b60006020820190508181036000830152614d7881614d3c565b9050919050565b7f4e45575f414444524553535f4d5553545f42455f534554000000000000000000600082015250565b6000614db560178361471c565b9150614dc082614d7f565b602082019050919050565b60006020820190508181036000830152614de481614da8565b9050919050565b7f4e487b7100000000000000000000000000000000000000000000000000000000600052603260045260246000fd5b7f4e487b7100000000000000000000000000000000000000000000000000000000600052601160045260246000fd5b6000614e54826143a3565b91507fffffffffffffffffffffffffffffffffffffffffffffffffffffffffffffffff821415614e8757614e86614e1a565b5b600182019050919050565b7f414c52454144595f434f4e4649524d4544000000000000000000000000000000600082015250565b6000614ec860118361471c565b9150614ed382614e92565b602082019050919050565b60006020820190508181036000830152614ef781614ebb565b9050919050565b6000608082019050614f1360008301876144bb565b614f206020830186614438565b614f2d60408301856144bb565b614f3a6060830184614438565b95945050505050565b7f494e56414c49445f494e564f4943455f49440000000000000000000000000000600082015250565b6000614f7960128361471c565b9150614f8482614f43565b602082019050919050565b60006020820190508181036000830152614fa881614f6c565b9050919050565b7f494e56414c49445f414d4f554e54000000000000000000000000000000000000600082015250565b6000614fe5600e8361471c565b9150614ff082614faf565b602082019050919050565b6000602082019050818103600083015261501481614fd8565b9050919050565b7f494e56414c49445f45585049524154494f4e5f56414c55450000000000000000600082015250565b600061505160188361471c565b915061505c8261501b565b602082019050919050565b6000602082019050818103600083015261508081615044565b9050919050565b7f45524332305f544f4b454e5f4e4f545f535550504f5254454400000000000000600082015250565b60006150bd60198361471c565b91506150c882615087565b602082019050919050565b600060208201905081810360008301526150ec816150b0565b9050919050565b7f494e564f4943455f414c52454144595f45584953540000000000000000000000600082015250565b600061512960158361471c565b9150615134826150f3565b602082019050919050565b600060208201905081810360008301526151588161511c565b9050919050565b600061516a826143a3565b9150615175836143a3565b9250827fffffffffffffffffffffffffffffffffffffffffffffffffffffffffffffffff038211156151aa576151a9614e1a565b5b828201905092915050565b60006060820190506151ca6000830186614438565b6151d76020830185614438565b6151e460408301846144bb565b949350505050565b7f5361666545524332303a20617070726f76652066726f6d206e6f6e2d7a65726f60008201527f20746f206e6f6e2d7a65726f20616c6c6f77616e636500000000000000000000602082015250565b600061524860368361471c565b9150615253826151ec565b604082019050919050565b600060208201905081810360008301526152778161523b565b9050919050565b60006040820190506152936000830185614438565b6152a060208301846144bb565b9392505050565b6152b081614538565b81146152bb57600080fd5b50565b6000815190506152cd816152a7565b92915050565b6000602082840312156152e9576152e861439e565b5b60006152f7848285016152be565b91505092915050565b7f5361666545524332303a204552433230206f7065726174696f6e20646964206e60008201527f6f74207375636365656400000000000000000000000000000000000000000000602082015250565b600061535c602a8361471c565b915061536782615300565b604082019050919050565b6000602082019050818103600083015261538b8161534f565b9050919050565b7f416464726573733a20696e73756666696369656e742062616c616e636520666f60008201527f722063616c6c0000000000000000000000000000000000000000000000000000602082015250565b60006153ee60268361471c565b91506153f982615392565b604082019050919050565b6000602082019050818103600083015261541d816153e1565b9050919050565b600061542f826145ae565b6154398185614c18565b93506154498185602086016145ca565b80840191505092915050565b60006154618284615424565b915081905092915050565b7f416464726573733a2063616c6c20746f206e6f6e2d636f6e7472616374000000600082015250565b60006154a2601d8361471c565b91506154ad8261546c565b602082019050919050565b600060208201905081810360008301526154d181615495565b9050919050565b600081519050919050565b60006154ee826154d8565b6154f8818561471c565b93506155088185602086016145ca565b615511816145fd565b840191505092915050565b6000602082019050818103600083015261553681846154e3565b90509291505056fea26469706673582212200390f9daff42b5574d561ec6c74714984d747bd1015b4c26f4d746326692cb0864736f6c63430008090033",
  "linkReferences": {},
  "deployedLinkReferences": {}
}