{
  "_format": "hh-sol-artifact-1",
  "contractName": "InvoiceFlowContract",
  "sourceName": "contracts/InvoiceFlowContract.sol",
  "abi": [
    {
      "inputs": [
        {
          "internalType": "address[]",
          "name": "_owners",
          "type": "address[]"
        },
        {
          "internalType": "address",
          "name": "_withdrawAddress",
          "type": "address"
        },
        {
          "internalType": "address[]",
          "name": "_acceptedTokens",
          "type": "address[]"
        },
        {
          "internalType": "uint8",
          "name": "_requiredOwnersApprovals",
          "type": "uint8"
        }
      ],
      "stateMutability": "nonpayable",
      "type": "constructor"
    },
    {
      "anonymous": false,
      "inputs": [
        {
          "indexed": false,
          "internalType": "uint256",
          "name": "_id",
          "type": "uint256"
        },
        {
          "indexed": false,
          "internalType": "address",
          "name": "_customer",
          "type": "address"
        },
        {
          "indexed": false,
          "internalType": "uint256",
          "name": "_amount",
          "type": "uint256"
        },
        {
          "indexed": false,
          "internalType": "address",
          "name": "_token",
          "type": "address"
        },
        {
          "indexed": false,
          "internalType": "uint256",
          "name": "_expiration",
          "type": "uint256"
        }
      ],
      "name": "InvoicePaid",
      "type": "event"
    },
    {
      "anonymous": false,
      "inputs": [
        {
          "indexed": false,
          "internalType": "uint256",
          "name": "_id",
          "type": "uint256"
        },
        {
          "indexed": false,
          "internalType": "address",
          "name": "_customer",
          "type": "address"
        },
        {
          "indexed": false,
          "internalType": "uint256",
          "name": "_amount",
          "type": "uint256"
        },
        {
          "indexed": false,
          "internalType": "address",
          "name": "_token",
          "type": "address"
        },
        {
          "indexed": false,
          "internalType": "uint256",
          "name": "_expiration",
          "type": "uint256"
        }
      ],
      "name": "InvoiceRegistered",
      "type": "event"
    },
    {
      "anonymous": false,
      "inputs": [
        {
          "indexed": false,
          "internalType": "uint256",
          "name": "_id",
          "type": "uint256"
        },
        {
          "indexed": false,
          "internalType": "address",
          "name": "_customer",
          "type": "address"
        },
        {
          "indexed": false,
          "internalType": "uint256",
          "name": "_amount",
          "type": "uint256"
        },
        {
          "indexed": false,
          "internalType": "address",
          "name": "_token",
          "type": "address"
        },
        {
          "indexed": false,
          "internalType": "uint256",
          "name": "_expiration",
          "type": "uint256"
        }
      ],
      "name": "InvoiceRemoved",
      "type": "event"
    },
    {
      "anonymous": false,
      "inputs": [
        {
          "indexed": false,
          "internalType": "address",
          "name": "_newAddress",
          "type": "address"
        },
        {
          "indexed": false,
          "internalType": "address",
          "name": "_submitter",
          "type": "address"
        }
      ],
      "name": "WithdrawAddressChangeApproved",
      "type": "event"
    },
    {
      "anonymous": false,
      "inputs": [
        {
          "indexed": false,
          "internalType": "address",
          "name": "_newAddress",
          "type": "address"
        },
        {
          "indexed": false,
          "internalType": "address",
          "name": "_submitter",
          "type": "address"
        }
      ],
      "name": "WithdrawAddressChangeRequested",
      "type": "event"
    },
    {
      "anonymous": false,
      "inputs": [
        {
          "indexed": false,
          "internalType": "address",
          "name": "_oldAddress",
          "type": "address"
        },
        {
          "indexed": false,
          "internalType": "address",
          "name": "_newAddress",
          "type": "address"
        }
      ],
      "name": "WithdrawAddressChanged",
      "type": "event"
    },
    {
      "anonymous": false,
      "inputs": [
        {
          "indexed": false,
          "internalType": "uint256",
          "name": "_id",
          "type": "uint256"
        },
        {
          "indexed": false,
          "internalType": "address",
          "name": "_approver",
          "type": "address"
        },
        {
          "indexed": false,
          "internalType": "uint256",
          "name": "_amount",
          "type": "uint256"
        },
        {
          "indexed": false,
          "internalType": "address",
          "name": "_token",
          "type": "address"
        }
      ],
      "name": "WithdrawRequestApproved",
      "type": "event"
    },
    {
      "anonymous": false,
      "inputs": [
        {
          "indexed": false,
          "internalType": "uint256",
          "name": "_id",
          "type": "uint256"
        },
        {
          "indexed": false,
          "internalType": "uint256",
          "name": "_amount",
          "type": "uint256"
        },
        {
          "indexed": false,
          "internalType": "address",
          "name": "_token",
          "type": "address"
        },
        {
          "indexed": false,
          "internalType": "bool",
          "name": "_executed",
          "type": "bool"
        }
      ],
      "name": "WithdrawRequestExecuted",
      "type": "event"
    },
    {
      "anonymous": false,
      "inputs": [
        {
          "indexed": false,
          "internalType": "uint256",
          "name": "_id",
          "type": "uint256"
        },
        {
          "indexed": false,
          "internalType": "uint256",
          "name": "_amount",
          "type": "uint256"
        },
        {
          "indexed": false,
          "internalType": "address",
          "name": "_token",
          "type": "address"
        },
        {
          "indexed": false,
          "internalType": "bool",
          "name": "_executed",
          "type": "bool"
        }
      ],
      "name": "WithdrawRequestRegistered",
      "type": "event"
    },
    {
      "inputs": [
        {
          "internalType": "uint256",
          "name": "_id",
          "type": "uint256"
        }
      ],
      "name": "approveWithdrawRequest",
      "outputs": [],
      "stateMutability": "nonpayable",
      "type": "function"
    },
    {
      "inputs": [
        {
          "internalType": "address",
          "name": "_newAddress",
          "type": "address"
        }
      ],
      "name": "changeWithdrawAddressRequest",
      "outputs": [],
      "stateMutability": "nonpayable",
      "type": "function"
    },
    {
      "inputs": [],
      "name": "confirmWithdrawAddressChange",
      "outputs": [],
      "stateMutability": "nonpayable",
      "type": "function"
    },
    {
      "inputs": [
        {
          "internalType": "uint256",
          "name": "_id",
          "type": "uint256"
        }
      ],
      "name": "executeWithdrawRequest",
      "outputs": [],
      "stateMutability": "payable",
      "type": "function"
    },
    {
      "inputs": [
        {
          "internalType": "address",
          "name": "_token",
          "type": "address"
        }
      ],
      "name": "getBalance",
      "outputs": [
        {
          "internalType": "uint256",
          "name": "",
          "type": "uint256"
        }
      ],
      "stateMutability": "view",
      "type": "function"
    },
    {
      "inputs": [],
      "name": "getInvoiceIds",
      "outputs": [
        {
          "internalType": "uint256[]",
          "name": "",
          "type": "uint256[]"
        }
      ],
      "stateMutability": "view",
      "type": "function"
    },
    {
      "inputs": [],
      "name": "getSummary",
      "outputs": [
        {
          "internalType": "address[]",
          "name": "",
          "type": "address[]"
        },
        {
          "internalType": "address[]",
          "name": "",
          "type": "address[]"
        },
        {
          "internalType": "address",
          "name": "",
          "type": "address"
        },
        {
          "internalType": "uint256",
          "name": "",
          "type": "uint256"
        }
      ],
      "stateMutability": "view",
      "type": "function"
    },
    {
      "inputs": [
        {
          "internalType": "uint256",
          "name": "_invoiceId",
          "type": "uint256"
        }
      ],
      "name": "handleTransfer",
      "outputs": [],
      "stateMutability": "payable",
      "type": "function"
    },
    {
      "inputs": [
        {
          "internalType": "uint256",
          "name": "",
          "type": "uint256"
        }
      ],
      "name": "invoiceIds",
      "outputs": [
        {
          "internalType": "uint256",
          "name": "",
          "type": "uint256"
        }
      ],
      "stateMutability": "view",
      "type": "function"
    },
    {
      "inputs": [
        {
          "internalType": "uint256",
          "name": "",
          "type": "uint256"
        }
      ],
      "name": "invoices",
      "outputs": [
        {
          "internalType": "address",
          "name": "customer",
          "type": "address"
        },
        {
          "internalType": "uint256",
          "name": "id",
          "type": "uint256"
        },
        {
          "internalType": "uint256",
          "name": "amount",
          "type": "uint256"
        },
        {
          "internalType": "address",
          "name": "token",
          "type": "address"
        },
        {
          "internalType": "uint256",
          "name": "expiration",
          "type": "uint256"
        }
      ],
      "stateMutability": "view",
      "type": "function"
    },
    {
      "inputs": [
        {
          "internalType": "uint256",
          "name": "_id",
          "type": "uint256"
        }
      ],
      "name": "isWithdrawConfirmed",
      "outputs": [
        {
          "internalType": "bool",
          "name": "",
          "type": "bool"
        }
      ],
      "stateMutability": "view",
      "type": "function"
    },
    {
      "inputs": [],
      "name": "newWithdrawAddress",
      "outputs": [
        {
          "internalType": "address",
          "name": "",
          "type": "address"
        }
      ],
      "stateMutability": "view",
      "type": "function"
    },
    {
      "inputs": [
        {
          "internalType": "uint256",
          "name": "",
          "type": "uint256"
        }
      ],
      "name": "owners",
      "outputs": [
        {
          "internalType": "address",
          "name": "",
          "type": "address"
        }
      ],
      "stateMutability": "view",
      "type": "function"
    },
    {
      "inputs": [
        {
          "internalType": "address",
          "name": "",
          "type": "address"
        }
      ],
      "name": "ownersMappings",
      "outputs": [
        {
          "internalType": "bool",
          "name": "",
          "type": "bool"
        }
      ],
      "stateMutability": "view",
      "type": "function"
    },
    {
      "inputs": [
        {
          "internalType": "uint256",
          "name": "_invoiceId",
          "type": "uint256"
        },
        {
          "internalType": "address",
          "name": "_customer",
          "type": "address"
        },
        {
          "internalType": "uint256",
          "name": "_amount",
          "type": "uint256"
        },
        {
          "internalType": "address",
          "name": "_token",
          "type": "address"
        },
        {
          "internalType": "uint256",
          "name": "_expiresInSec",
          "type": "uint256"
        }
      ],
      "name": "registerInvoice",
      "outputs": [],
      "stateMutability": "nonpayable",
      "type": "function"
    },
    {
      "inputs": [
        {
          "internalType": "uint256",
          "name": "_amount",
          "type": "uint256"
        },
        {
          "internalType": "address",
          "name": "_token",
          "type": "address"
        }
      ],
      "name": "registerWithdrawRequest",
      "outputs": [
        {
          "internalType": "uint256",
          "name": "",
          "type": "uint256"
        }
      ],
      "stateMutability": "nonpayable",
      "type": "function"
    },
    {
      "inputs": [
        {
          "internalType": "uint256",
          "name": "_invoiceId",
          "type": "uint256"
        }
      ],
      "name": "removeInvoice",
      "outputs": [],
      "stateMutability": "nonpayable",
      "type": "function"
    },
    {
      "inputs": [],
      "name": "requiredOwnersApprovals",
      "outputs": [
        {
          "internalType": "uint256",
          "name": "",
          "type": "uint256"
        }
      ],
      "stateMutability": "view",
      "type": "function"
    },
    {
      "inputs": [
        {
          "internalType": "uint256",
          "name": "",
          "type": "uint256"
        }
      ],
      "name": "supportedTokensList",
      "outputs": [
        {
          "internalType": "address",
          "name": "",
          "type": "address"
        }
      ],
      "stateMutability": "view",
      "type": "function"
    },
    {
      "inputs": [],
      "name": "withdrawAddress",
      "outputs": [
        {
          "internalType": "address",
          "name": "",
          "type": "address"
        }
      ],
      "stateMutability": "view",
      "type": "function"
    },
    {
      "inputs": [
        {
          "internalType": "address",
          "name": "",
          "type": "address"
        }
      ],
      "name": "withdrawAddressChangeApprovals",
      "outputs": [
        {
          "internalType": "bool",
          "name": "",
          "type": "bool"
        }
      ],
      "stateMutability": "view",
      "type": "function"
    },
    {
      "inputs": [],
      "name": "withdrawAddressChangeConfirmationsCount",
      "outputs": [
        {
          "internalType": "uint256",
          "name": "",
          "type": "uint256"
        }
      ],
      "stateMutability": "view",
      "type": "function"
    },
    {
      "inputs": [
        {
          "internalType": "uint256",
          "name": "_id",
          "type": "uint256"
        }
      ],
      "name": "withdrawRequestConfirmationsCount",
      "outputs": [
        {
          "internalType": "uint256",
          "name": "",
          "type": "uint256"
        }
      ],
      "stateMutability": "view",
      "type": "function"
    },
    {
      "inputs": [
        {
          "internalType": "uint256",
          "name": "",
          "type": "uint256"
        }
      ],
      "name": "withdrawRequests",
      "outputs": [
        {
          "internalType": "uint256",
          "name": "id",
          "type": "uint256"
        },
        {
          "internalType": "uint256",
          "name": "amount",
          "type": "uint256"
        },
        {
          "internalType": "address",
          "name": "token",
          "type": "address"
        },
        {
          "internalType": "bool",
          "name": "executed",
          "type": "bool"
        },
        {
          "internalType": "bytes",
          "name": "data",
          "type": "bytes"
        }
      ],
      "stateMutability": "view",
      "type": "function"
    }
  ],
  "bytecode": "0x608060405260006007553480156200001657600080fd5b5060405162002c0b38038062002c0b833981016040819052620000399162000528565b6000845111620000905760405162461bcd60e51b815260206004820152601360248201527f4f574e4552535f4152455f52455155495245440000000000000000000000000060448201526064015b60405180910390fd5b6001600160a01b038316620000e85760405162461bcd60e51b815260206004820152601960248201527f57495448445241575f414444524553535f524551554952454400000000000000604482015260640162000087565b83518160ff1611156200013e5760405162461bcd60e51b815260206004820152601860248201527f494e56414c49445f415050524f56414c535f4e554d4245520000000000000000604482015260640162000087565b60ff8116600955600c8054336001600160a01b031991821617909155600880549091166001600160a01b038516179055835162000181600a6020870183620003c7565b5060005b81811015620001f0576001600b6000888481518110620001a957620001a9620005be565b6020908102919091018101516001600160a01b03168252810191909152604001600020805460ff191691151591909117905580620001e781620005d4565b91505062000185565b5060026020527fac33ff75c19e70fe83507db0d683fd3465c996598dc972688b7ace676c89077b805460ff1916600190811790915560038054918201815560009081527fc2575a0e9e593c00f959f8c92f12db2869c3395a3b0502d05e2516446f71f85b90910180546001600160a01b03191690558351905b81811015620003ae576200029f8582815181106200028b576200028b620005be565b6020026020010151620003bb60201b60201c565b620002ed5760405162461bcd60e51b815260206004820152601560248201527f494e56414c49445f544f4b454e5f414444524553530000000000000000000000604482015260640162000087565b600160026000878481518110620003085762000308620005be565b60200260200101516001600160a01b03166001600160a01b0316815260200190815260200160002060006101000a81548160ff02191690831515021790555060038582815181106200035e576200035e620005be565b60209081029190910181015182546001810184556000938452919092200180546001600160a01b0319166001600160a01b0390921691909117905580620003a581620005d4565b91505062000269565b50505050505050620005fe565b3b63ffffffff16151590565b8280548282559060005260206000209081019282156200041f579160200282015b828111156200041f57825182546001600160a01b0319166001600160a01b03909116178255602090920191600190910190620003e8565b506200042d92915062000431565b5090565b5b808211156200042d576000815560010162000432565b634e487b7160e01b600052604160045260246000fd5b80516001600160a01b03811681146200047657600080fd5b919050565b600082601f8301126200048d57600080fd5b815160206001600160401b0380831115620004ac57620004ac62000448565b8260051b604051601f19603f83011681018181108482111715620004d457620004d462000448565b604052938452858101830193838101925087851115620004f357600080fd5b83870191505b848210156200051d576200050d826200045e565b83529183019190830190620004f9565b979650505050505050565b600080600080608085870312156200053f57600080fd5b84516001600160401b03808211156200055757600080fd5b62000565888389016200047b565b955062000575602088016200045e565b945060408701519150808211156200058c57600080fd5b506200059b878288016200047b565b925050606085015160ff81168114620005b357600080fd5b939692955090935050565b634e487b7160e01b600052603260045260246000fd5b6000600019821415620005f757634e487b7160e01b600052601160045260246000fd5b5060010190565b6125fd806200060e6000396000f3fe60806040526004361061014b5760003560e01c80636d0aad85116100b6578063d854ce471161006f578063d854ce4714610434578063e5a57b5214610449578063ebb1a6e914610469578063f296727c14610489578063f6ede261146104b9578063f8b2cb4f146104d957600080fd5b80636d0aad851461036e578063992a7dfb1461038e5780639dbdfa38146103bf578063a768e83b146103df578063b7a55f4a146103f4578063d75e172f1461041457600080fd5b80634e6d1405116101085780634e6d14051461021a57806356ae262c146102a85780635731f10e146102ca57806363c91877146102ee57806364f054501461030e578063660fafb41461032e57600080fd5b8063025e7c27146101505780631581b6001461018d57806321ebfdda146101ad5780632c87cc80146101c25780633e9dee48146101d55780634051ddac146101f5575b600080fd5b34801561015c57600080fd5b5061017061016b366004612178565b6104f9565b6040516001600160a01b0390911681526020015b60405180910390f35b34801561019957600080fd5b50600854610170906001600160a01b031681565b6101c06101bb366004612178565b610523565b005b6101c06101d0366004612178565b61096d565b3480156101e157600080fd5b506101c06101f03660046121a8565b610bd3565b34801561020157600080fd5b5061020a610d06565b6040516101849493929190612207565b34801561022657600080fd5b50610271610235366004612178565b600060208190529081526040902080546001820154600283015460038401546004909401546001600160a01b0393841694929391929091169085565b604080516001600160a01b03968716815260208101959095528401929092529092166060820152608081019190915260a001610184565b3480156102b457600080fd5b506102bd610def565b6040516101849190612249565b3480156102d657600080fd5b506102e060095481565b604051908152602001610184565b3480156102fa57600080fd5b50610170610309366004612178565b610e47565b34801561031a57600080fd5b506102e0610329366004612178565b610e57565b34801561033a57600080fd5b5061035e6103493660046121a8565b600b6020526000908152604090205460ff1681565b6040519015158152602001610184565b34801561037a57600080fd5b506102e061038936600461228d565b610eea565b34801561039a57600080fd5b506103ae6103a9366004612178565b610f37565b604051610184959493929190612311565b3480156103cb57600080fd5b5061035e6103da366004612178565b611000565b3480156103eb57600080fd5b506101c0611016565b34801561040057600080fd5b50600654610170906001600160a01b031681565b34801561042057600080fd5b506101c061042f366004612178565b6111e3565b34801561044057600080fd5b506102e0611377565b34801561045557600080fd5b506102e0610464366004612178565b6113f5565b34801561047557600080fd5b506101c0610484366004612178565b611416565b34801561049557600080fd5b5061035e6104a43660046121a8565b60056020526000908152604090205460ff1681565b3480156104c557600080fd5b506101c06104d4366004612346565b61158c565b3480156104e557600080fd5b506102e06104f43660046121a8565b6118dd565b600a818154811061050957600080fd5b6000918252602090912001546001600160a01b0316905081565b60008181526020819052604090206001810154821461057d5760405162461bcd60e51b815260206004820152601160248201527012539593d250d157d393d517d193d55391607a1b60448201526064015b60405180910390fd5b80546001600160a01b031633146105d65760405162461bcd60e51b815260206004820152601a60248201527f435553544f4d45525f414444524553535f4e4f545f4d415443480000000000006044820152606401610574565b806004015442111561061c5760405162461bcd60e51b815260206004820152600f60248201526e12539593d250d157d1561412549151608a1b6044820152606401610574565b60038101546001600160a01b03163b63ffffffff16156108785760038101546002820154604051636eb1769f60e11b81523360048201523060248201526001600160a01b0390921691829063dd62ed3e9060440160206040518083038186803b15801561068857600080fd5b505afa15801561069c573d6000803e3d6000fd5b505050506040513d601f19601f820116820180604052508101906106c09190612394565b101561070e5760405162461bcd60e51b815260206004820152601860248201527f414c4c4f57414e43455f4e4f545f53554646494349454e5400000000000000006044820152606401610574565b60028201546040516370a0823160e01b81523360048201526001600160a01b038316906370a082319060240160206040518083038186803b15801561075257600080fd5b505afa158015610766573d6000803e3d6000fd5b505050506040513d601f19601f8201168201806040525081019061078a9190612394565b10156107a85760405162461bcd60e51b8152600401610574906123ad565b60028201546107c5906001600160a01b0383169033903090611976565b60008381526020819052604090819020600181015481546002830154600384015460049094015494517f1e9d5d6c031b4874171949ea430d3fb4672ea0580b179f82f6f1439e9b8be5c795610827956001600160a01b039485169416916123db565b60405180910390a1600083815260208190526040812080546001600160a01b031990811682556001820183905560028201839055600382018054909116905560040155610873836119e7565b505050565b348160020154146108c35760405162461bcd60e51b81526020600482015260156024820152740a68a9ca8be829a9eaa9ca8be9c9ea8be9a82a8869605b1b6044820152606401610574565b60008281526020819052604090819020600181015481546002830154600384015460049094015494517f1e9d5d6c031b4874171949ea430d3fb4672ea0580b179f82f6f1439e9b8be5c795610925956001600160a01b039485169416916123db565b60405180910390a1600082815260208190526040812080546001600160a01b0319908116825560018201839055600282018390556003820180549091169055600401555b5050565b336000908152600b602052604090205460ff1661099c5760405162461bcd60e51b815260040161057490612409565b6109a581611000565b6109f15760405162461bcd60e51b815260206004820152601860248201527f4e4f545f454e4f5547485f434f4e4649524d4154494f4e5300000000000000006044820152606401610574565b600081815260046020526040902060020154600160a01b900460ff1615610a565760405162461bcd60e51b815260206004820152601960248201527815d2551211149055d7d053149150511657d1561150d5551151603a1b6044820152606401610574565b6000818152600460205260409020600201546001600160a01b0316610b71576008546000828152600460205260408082206001810154915192936001600160a01b031692610aa79160030190612464565b60006040518083038185875af1925050503d8060008114610ae4576040519150601f19603f3d011682016040523d82523d6000602084013e610ae9565b606091505b5050905080610af757600080fd5b60008281526004602090815260409182902060028101805460ff60a01b198116600160a01b179091556001918201548451878152938401526001600160a01b031682840152606082015290517fd06473f54f367f5bec1000de7268f9b7f60b1da5f67c03fae9186fdbf320dba99181900360800190a15050565b600081815260046020526040902060028101546001909101546001600160a01b0390911690610ba390829030906119fd565b600854600083815260046020526040902060010154610af7916001600160a01b0384811692911690611b21565b50565b336000908152600b602052604090205460ff16610c025760405162461bcd60e51b815260040161057490612409565b6001600160a01b038116610c4a5760405162461bcd60e51b815260206004820152600f60248201526e494e56414c49445f4144445245535360881b6044820152606401610574565b6008546001600160a01b0382811691161415610ca85760405162461bcd60e51b815260206004820152601760248201527f4e45575f414444524553535f4d5553545f42455f5345540000000000000000006044820152606401610574565b600680546001600160a01b0319166001600160a01b038316908117909155604080519182523360208301527f2b0922972416e22d209302789a7a347ca228dcdfa06b0fb9f6530493c5434b7d910160405180910390a1610bd0611016565b606080600080600a6003600860009054906101000a90046001600160a01b031660095483805480602002602001604051908101604052809291908181526020018280548015610d7e57602002820191906000526020600020905b81546001600160a01b03168152600190910190602001808311610d60575b5050505050935082805480602002602001604051908101604052809291908181526020018280548015610dda57602002820191906000526020600020905b81546001600160a01b03168152600190910190602001808311610dbc575b50505050509250935093509350935090919293565b60606001805480602002602001604051908101604052809291908181526020018280548015610e3d57602002820191906000526020600020905b815481526020019060010190808311610e29575b5050505050905090565b6003818154811061050957600080fd5b600080805b600a54811015610ee357600460008581526020019081526020016000206004016000600a8381548110610e9157610e91612500565b60009182526020808320909101546001600160a01b0316835282019290925260400190205460ff16151560011415610ed15781610ecd8161252c565b9250505b80610edb8161252c565b915050610e5c565b5092915050565b336000908152600b602052604081205460ff16610f195760405162461bcd60e51b815260040161057490612409565b6000610f258484611b51565b9050610f30816111e3565b9392505050565b6004602052600090815260409020805460018201546002830154600384018054939492936001600160a01b03831693600160a01b90930460ff16929190610f7d9061242f565b80601f0160208091040260200160405190810160405280929190818152602001828054610fa99061242f565b8015610ff65780601f10610fcb57610100808354040283529160200191610ff6565b820191906000526020600020905b815481529060010190602001808311610fd957829003601f168201915b5050505050905085565b600060095461100e83610e57565b101592915050565b336000908152600b602052604090205460ff166110455760405162461bcd60e51b815260040161057490612409565b3360009081526005602052604090205460ff16156110995760405162461bcd60e51b81526020600482015260116024820152701053149150511657d0d3d3919254935151607a1b6044820152606401610574565b33600081815260056020908152604091829020805460ff1916600117905560065482516001600160a01b039091168152908101929092527fddba811775e7d1ebcf528735a977db455687c2efa4f71b2f394e82470872ecd1910160405180910390a1600954611106611377565b106111e15760088054600680546001600160a01b03198084166001600160a01b03838116919091179095551690551660005b600a548110156111975760056000600a838154811061115957611159612500565b60009182526020808320909101546001600160a01b031683528201929092526040019020805460ff191690558061118f8161252c565b915050611138565b50600654604080516001600160a01b03808516825290921660208301527f2b0922972416e22d209302789a7a347ca228dcdfa06b0fb9f6530493c5434b7d910160405180910390a1505b565b336000908152600b602052604090205460ff166112125760405162461bcd60e51b815260040161057490612409565b600081815260046020526040902060020154600160a01b900460ff16156112775760405162461bcd60e51b815260206004820152601960248201527815d2551211149055d7d053149150511657d1561150d5551151603a1b6044820152606401610574565b6000818152600460208181526040808420338552909201905290205460ff16156112d75760405162461bcd60e51b81526020600482015260116024820152701053149150511657d0d3d3919254935151607a1b6044820152606401610574565b6000818152600460208181526040808420338086528185018452828620805460ff1916600190811790915595879052938352938401546002909401548151868152928301939093528101929092526001600160a01b031660608201527f290e497efdb0dd5ff1b04494163110ffcef2979c5bc76a9a26a9368f2f6249f29060800160405180910390a161136981611000565b15610bd057610bd08161096d565b600080805b600a548110156113ef5760056000600a838154811061139d5761139d612500565b60009182526020808320909101546001600160a01b0316835282019290925260400190205460ff161515600114156113dd57816113d98161252c565b9250505b806113e78161252c565b91505061137c565b50919050565b6001818154811061140557600080fd5b600091825260209091200154905081565b336000908152600b602052604090205460ff166114455760405162461bcd60e51b815260040161057490612409565b6000811161148a5760405162461bcd60e51b81526020600482015260126024820152711253959053125117d2539593d250d157d25160721b6044820152606401610574565b60008181526020819052604090206001015481146114de5760405162461bcd60e51b815260206004820152601160248201527012539593d250d157d393d517d193d55391607a1b6044820152606401610574565b60008181526020819052604090819020600181015481546002830154600384015460049094015494517f4a9220e3f51737c89f656dd6c1b766250e200d6d80c4f1cdcfad85909e68109e95611540956001600160a01b039485169416916123db565b60405180910390a1600081815260208190526040812080546001600160a01b031990811682556001820183905560028201839055600382018054909116905560040155610bd0816119e7565b336000908152600b602052604090205460ff166115bb5760405162461bcd60e51b815260040161057490612409565b600083116115fc5760405162461bcd60e51b815260206004820152600e60248201526d1253959053125117d05353d5539560921b6044820152606401610574565b6001600160a01b0384166116445760405162461bcd60e51b815260206004820152600f60248201526e494e56414c49445f4144445245535360881b6044820152606401610574565b600085116116895760405162461bcd60e51b81526020600482015260126024820152711253959053125117d2539593d250d157d25160721b6044820152606401610574565b600081116116d95760405162461bcd60e51b815260206004820152601860248201527f494e56414c49445f45585049524154494f4e5f56414c554500000000000000006044820152606401610574565b6001600160a01b03821660009081526002602052604090205460ff1615156001146117425760405162461bcd60e51b8152602060048201526019602482015278115490cc8c17d513d2d15397d393d517d4d5541413d4951151603a1b6044820152606401610574565b600085815260208190526040902060040154156117995760405162461bcd60e51b815260206004820152601560248201527412539593d250d157d053149150511657d1561254d5605a1b6044820152606401610574565b60006117a58242612547565b905060018690806001815401808255809150506001900390600052602060002001600090919091909150556040518060a00160405280866001600160a01b03168152602001878152602001858152602001846001600160a01b031681526020018281525060008088815260200190815260200160002060008201518160000160006101000a8154816001600160a01b0302191690836001600160a01b03160217905550602082015181600101556040820151816002015560608201518160030160006101000a8154816001600160a01b0302191690836001600160a01b03160217905550608082015181600401559050507f5b7ac58adf4d4afccc6b58de721e6d756f26d1741c8cbfee9e890c919f972a2186868686856040516118cd9594939291906123db565b60405180910390a1505050505050565b60006001600160a01b0382166118f4575047919050565b6040516370a0823160e01b81523060048201526001600160a01b038316906370a082319060240160206040518083038186803b15801561193357600080fd5b505afa158015611947573d6000803e3d6000fd5b505050506040513d601f19601f8201168201806040525081019061196b9190612394565b92915050565b919050565b6040516001600160a01b03808516602483015283166044820152606481018290526119e19085906323b872dd60e01b906084015b60408051601f198184030181529190526020810180516001600160e01b03166001600160e01b031990931692909217909152611dac565b50505050565b60006119f282611e7e565b905061096981611eb8565b801580611a865750604051636eb1769f60e11b81523060048201526001600160a01b03838116602483015284169063dd62ed3e9060440160206040518083038186803b158015611a4c57600080fd5b505afa158015611a60573d6000803e3d6000fd5b505050506040513d601f19601f82011682018060405250810190611a849190612394565b155b611af15760405162461bcd60e51b815260206004820152603660248201527f5361666545524332303a20617070726f76652066726f6d206e6f6e2d7a65726f60448201527520746f206e6f6e2d7a65726f20616c6c6f77616e636560501b6064820152608401610574565b6040516001600160a01b03831660248201526044810182905261087390849063095ea7b360e01b906064016119aa565b6040516001600160a01b03831660248201526044810182905261087390849063a9059cbb60e01b906064016119aa565b336000908152600b602052604081205460ff16611b805760405162461bcd60e51b815260040161057490612409565b60008311611bc15760405162461bcd60e51b815260206004820152600e60248201526d1253959053125117d05353d5539560921b6044820152606401610574565b6001600160a01b03821660009081526002602052604090205460ff161515600114611c2a5760405162461bcd60e51b8152602060048201526019602482015278115490cc8c17d513d2d15397d393d517d4d5541413d4951151603a1b6044820152606401610574565b6001600160a01b03821615611cd8576040516370a0823160e01b8152306004820152829084906001600160a01b038316906370a082319060240160206040518083038186803b158015611c7c57600080fd5b505afa158015611c90573d6000803e3d6000fd5b505050506040513d601f19601f82011682018060405250810190611cb49190612394565b1015611cd25760405162461bcd60e51b8152600401610574906123ad565b50611cf8565b82471015611cf85760405162461bcd60e51b8152600401610574906123ad565b600754611d06906001612547565b60078190556000818152600460205260408120918255600182018590556002820180546001600160a81b0319166001600160a01b038616179055611d4f906003830190366120df565b5060075460408051918252602082018690526001600160a01b0385168282015260006060830152517f3de41e8a78563f837e9e091c8c40d5f855aea89fcbf3ed310fb145a740e5fa3f9181900360800190a1505060075492915050565b6000611e01826040518060400160405280602081526020017f5361666545524332303a206c6f772d6c6576656c2063616c6c206661696c6564815250856001600160a01b0316611f529092919063ffffffff16565b8051909150156108735780806020019051810190611e1f919061255f565b6108735760405162461bcd60e51b815260206004820152602a60248201527f5361666545524332303a204552433230206f7065726174696f6e20646964206e6044820152691bdd081cdd58d8d9595960b21b6064820152608401610574565b6000805b8260018281548110611e9657611e96612500565b90600052602060002001541461196b5780611eb08161252c565b915050611e82565b60018054611ec69190612581565b811015611f25576001611ed98282612547565b81548110611ee957611ee9612500565b906000526020600020015460018281548110611f0757611f07612500565b60009182526020909120015580611f1d8161252c565b915050611eb8565b60018054611f34908290612581565b81548110611f4457611f44612500565b600091825260208220015550565b6060611f618484600085611f69565b949350505050565b606082471015611fca5760405162461bcd60e51b815260206004820152602660248201527f416464726573733a20696e73756666696369656e742062616c616e636520666f6044820152651c8818d85b1b60d21b6064820152608401610574565b600080866001600160a01b03168587604051611fe69190612598565b60006040518083038185875af1925050503d8060008114612023576040519150601f19603f3d011682016040523d82523d6000602084013e612028565b606091505b509150915061203987838387612044565b979650505050505050565b606083156120b05782516120a9576001600160a01b0385163b6120a95760405162461bcd60e51b815260206004820152601d60248201527f416464726573733a2063616c6c20746f206e6f6e2d636f6e74726163740000006044820152606401610574565b5081611f61565b611f6183838151156120c55781518083602001fd5b8060405162461bcd60e51b815260040161057491906125b4565b8280546120eb9061242f565b90600052602060002090601f01602090048101928261210d5760008555612153565b82601f106121265782800160ff19823516178555612153565b82800160010185558215612153579182015b82811115612153578235825591602001919060010190612138565b5061215f929150612163565b5090565b5b8082111561215f5760008155600101612164565b60006020828403121561218a57600080fd5b5035919050565b80356001600160a01b038116811461197157600080fd5b6000602082840312156121ba57600080fd5b610f3082612191565b600081518084526020808501945080840160005b838110156121fc5781516001600160a01b0316875295820195908201906001016121d7565b509495945050505050565b60808152600061221a60808301876121c3565b828103602084015261222c81876121c3565b6001600160a01b0395909516604084015250506060015292915050565b6020808252825182820181905260009190848201906040850190845b8181101561228157835183529284019291840191600101612265565b50909695505050505050565b600080604083850312156122a057600080fd5b823591506122b060208401612191565b90509250929050565b60005b838110156122d45781810151838201526020016122bc565b838111156119e15750506000910152565b600081518084526122fd8160208601602086016122b9565b601f01601f19169290920160200192915050565b85815284602082015260018060a01b0384166040820152821515606082015260a06080820152600061203960a08301846122e5565b600080600080600060a0868803121561235e57600080fd5b8535945061236e60208701612191565b93506040860135925061238360608701612191565b949793965091946080013592915050565b6000602082840312156123a657600080fd5b5051919050565b602080825260149082015273494e53554646494349454e545f42414c414e434560601b604082015260600190565b9485526001600160a01b03938416602086015260408501929092529091166060830152608082015260a00190565b6020808252600c908201526b15539055551213d49256915160a21b604082015260600190565b600181811c9082168061244357607f821691505b602082108114156113ef57634e487b7160e01b600052602260045260246000fd5b600080835481600182811c91508083168061248057607f831692505b60208084108214156124a057634e487b7160e01b86526022600452602486fd5b8180156124b457600181146124c5576124f2565b60ff198616895284890196506124f2565b60008a81526020902060005b868110156124ea5781548b8201529085019083016124d1565b505084890196505b509498975050505050505050565b634e487b7160e01b600052603260045260246000fd5b634e487b7160e01b600052601160045260246000fd5b600060001982141561254057612540612516565b5060010190565b6000821982111561255a5761255a612516565b500190565b60006020828403121561257157600080fd5b81518015158114610f3057600080fd5b60008282101561259357612593612516565b500390565b600082516125aa8184602087016122b9565b9190910192915050565b602081526000610f3060208301846122e556fea264697066735822122044fb186cdb4c4b71610eafbf0d0a2f29f1df9d17cc2177a864318513c91f17f464736f6c63430008090033",
  "linkReferences": {},
  "deployedLinkReferences": {}
}